{
	"mytoken.sol": {
		"CappedToken": {
			"abi": [
				{
					"inputs": [
						{
							"internalType": "string",
							"name": "name_",
							"type": "string"
						},
						{
							"internalType": "string",
							"name": "symbol_",
							"type": "string"
						},
						{
							"internalType": "uint256",
							"name": "maxSupplyTokens",
							"type": "uint256"
						}
					],
					"stateMutability": "nonpayable",
					"type": "constructor"
				},
				{
					"inputs": [
						{
							"internalType": "address",
							"name": "spender",
							"type": "address"
						},
						{
							"internalType": "uint256",
							"name": "allowance",
							"type": "uint256"
						},
						{
							"internalType": "uint256",
							"name": "needed",
							"type": "uint256"
						}
					],
					"name": "ERC20InsufficientAllowance",
					"type": "error"
				},
				{
					"inputs": [
						{
							"internalType": "address",
							"name": "sender",
							"type": "address"
						},
						{
							"internalType": "uint256",
							"name": "balance",
							"type": "uint256"
						},
						{
							"internalType": "uint256",
							"name": "needed",
							"type": "uint256"
						}
					],
					"name": "ERC20InsufficientBalance",
					"type": "error"
				},
				{
					"inputs": [
						{
							"internalType": "address",
							"name": "approver",
							"type": "address"
						}
					],
					"name": "ERC20InvalidApprover",
					"type": "error"
				},
				{
					"inputs": [
						{
							"internalType": "address",
							"name": "receiver",
							"type": "address"
						}
					],
					"name": "ERC20InvalidReceiver",
					"type": "error"
				},
				{
					"inputs": [
						{
							"internalType": "address",
							"name": "sender",
							"type": "address"
						}
					],
					"name": "ERC20InvalidSender",
					"type": "error"
				},
				{
					"inputs": [
						{
							"internalType": "address",
							"name": "spender",
							"type": "address"
						}
					],
					"name": "ERC20InvalidSpender",
					"type": "error"
				},
				{
					"inputs": [
						{
							"internalType": "address",
							"name": "owner",
							"type": "address"
						}
					],
					"name": "OwnableInvalidOwner",
					"type": "error"
				},
				{
					"inputs": [
						{
							"internalType": "address",
							"name": "account",
							"type": "address"
						}
					],
					"name": "OwnableUnauthorizedAccount",
					"type": "error"
				},
				{
					"anonymous": false,
					"inputs": [
						{
							"indexed": true,
							"internalType": "address",
							"name": "owner",
							"type": "address"
						},
						{
							"indexed": true,
							"internalType": "address",
							"name": "spender",
							"type": "address"
						},
						{
							"indexed": false,
							"internalType": "uint256",
							"name": "value",
							"type": "uint256"
						}
					],
					"name": "Approval",
					"type": "event"
				},
				{
					"anonymous": false,
					"inputs": [
						{
							"indexed": true,
							"internalType": "address",
							"name": "previousOwner",
							"type": "address"
						},
						{
							"indexed": true,
							"internalType": "address",
							"name": "newOwner",
							"type": "address"
						}
					],
					"name": "OwnershipTransferred",
					"type": "event"
				},
				{
					"anonymous": false,
					"inputs": [
						{
							"indexed": true,
							"internalType": "address",
							"name": "from",
							"type": "address"
						},
						{
							"indexed": true,
							"internalType": "address",
							"name": "to",
							"type": "address"
						},
						{
							"indexed": false,
							"internalType": "uint256",
							"name": "value",
							"type": "uint256"
						}
					],
					"name": "Transfer",
					"type": "event"
				},
				{
					"inputs": [],
					"name": "MAX_SUPPLY",
					"outputs": [
						{
							"internalType": "uint256",
							"name": "",
							"type": "uint256"
						}
					],
					"stateMutability": "view",
					"type": "function"
				},
				{
					"inputs": [
						{
							"internalType": "address",
							"name": "owner",
							"type": "address"
						},
						{
							"internalType": "address",
							"name": "spender",
							"type": "address"
						}
					],
					"name": "allowance",
					"outputs": [
						{
							"internalType": "uint256",
							"name": "",
							"type": "uint256"
						}
					],
					"stateMutability": "view",
					"type": "function"
				},
				{
					"inputs": [
						{
							"internalType": "address",
							"name": "spender",
							"type": "address"
						},
						{
							"internalType": "uint256",
							"name": "value",
							"type": "uint256"
						}
					],
					"name": "approve",
					"outputs": [
						{
							"internalType": "bool",
							"name": "",
							"type": "bool"
						}
					],
					"stateMutability": "nonpayable",
					"type": "function"
				},
				{
					"inputs": [
						{
							"internalType": "address",
							"name": "account",
							"type": "address"
						}
					],
					"name": "balanceOf",
					"outputs": [
						{
							"internalType": "uint256",
							"name": "",
							"type": "uint256"
						}
					],
					"stateMutability": "view",
					"type": "function"
				},
				{
					"inputs": [],
					"name": "decimals",
					"outputs": [
						{
							"internalType": "uint8",
							"name": "",
							"type": "uint8"
						}
					],
					"stateMutability": "view",
					"type": "function"
				},
				{
					"inputs": [],
					"name": "finishMinting",
					"outputs": [],
					"stateMutability": "nonpayable",
					"type": "function"
				},
				{
					"inputs": [
						{
							"internalType": "address",
							"name": "to",
							"type": "address"
						},
						{
							"internalType": "uint256",
							"name": "amountTokens",
							"type": "uint256"
						}
					],
					"name": "mint",
					"outputs": [],
					"stateMutability": "nonpayable",
					"type": "function"
				},
				{
					"inputs": [],
					"name": "mintingFinished",
					"outputs": [
						{
							"internalType": "bool",
							"name": "",
							"type": "bool"
						}
					],
					"stateMutability": "view",
					"type": "function"
				},
				{
					"inputs": [],
					"name": "name",
					"outputs": [
						{
							"internalType": "string",
							"name": "",
							"type": "string"
						}
					],
					"stateMutability": "view",
					"type": "function"
				},
				{
					"inputs": [],
					"name": "owner",
					"outputs": [
						{
							"internalType": "address",
							"name": "",
							"type": "address"
						}
					],
					"stateMutability": "view",
					"type": "function"
				},
				{
					"inputs": [],
					"name": "renounceOwnership",
					"outputs": [],
					"stateMutability": "nonpayable",
					"type": "function"
				},
				{
					"inputs": [],
					"name": "symbol",
					"outputs": [
						{
							"internalType": "string",
							"name": "",
							"type": "string"
						}
					],
					"stateMutability": "view",
					"type": "function"
				},
				{
					"inputs": [],
					"name": "totalSupply",
					"outputs": [
						{
							"internalType": "uint256",
							"name": "",
							"type": "uint256"
						}
					],
					"stateMutability": "view",
					"type": "function"
				},
				{
					"inputs": [
						{
							"internalType": "address",
							"name": "to",
							"type": "address"
						},
						{
							"internalType": "uint256",
							"name": "value",
							"type": "uint256"
						}
					],
					"name": "transfer",
					"outputs": [
						{
							"internalType": "bool",
							"name": "",
							"type": "bool"
						}
					],
					"stateMutability": "nonpayable",
					"type": "function"
				},
				{
					"inputs": [
						{
							"internalType": "address",
							"name": "from",
							"type": "address"
						},
						{
							"internalType": "address",
							"name": "to",
							"type": "address"
						},
						{
							"internalType": "uint256",
							"name": "value",
							"type": "uint256"
						}
					],
					"name": "transferFrom",
					"outputs": [
						{
							"internalType": "bool",
							"name": "",
							"type": "bool"
						}
					],
					"stateMutability": "nonpayable",
					"type": "function"
				},
				{
					"inputs": [
						{
							"internalType": "address",
							"name": "newOwner",
							"type": "address"
						}
					],
					"name": "transferOwnership",
					"outputs": [],
					"stateMutability": "nonpayable",
					"type": "function"
				}
			],
			"devdoc": {
				"errors": {
					"ERC20InsufficientAllowance(address,uint256,uint256)": [
						{
							"details": "Indicates a failure with the `spender`’s `allowance`. Used in transfers.",
							"params": {
								"allowance": "Amount of tokens a `spender` is allowed to operate with.",
								"needed": "Minimum amount required to perform a transfer.",
								"spender": "Address that may be allowed to operate on tokens without being their owner."
							}
						}
					],
					"ERC20InsufficientBalance(address,uint256,uint256)": [
						{
							"details": "Indicates an error related to the current `balance` of a `sender`. Used in transfers.",
							"params": {
								"balance": "Current balance for the interacting account.",
								"needed": "Minimum amount required to perform a transfer.",
								"sender": "Address whose tokens are being transferred."
							}
						}
					],
					"ERC20InvalidApprover(address)": [
						{
							"details": "Indicates a failure with the `approver` of a token to be approved. Used in approvals.",
							"params": {
								"approver": "Address initiating an approval operation."
							}
						}
					],
					"ERC20InvalidReceiver(address)": [
						{
							"details": "Indicates a failure with the token `receiver`. Used in transfers.",
							"params": {
								"receiver": "Address to which tokens are being transferred."
							}
						}
					],
					"ERC20InvalidSender(address)": [
						{
							"details": "Indicates a failure with the token `sender`. Used in transfers.",
							"params": {
								"sender": "Address whose tokens are being transferred."
							}
						}
					],
					"ERC20InvalidSpender(address)": [
						{
							"details": "Indicates a failure with the `spender` to be approved. Used in approvals.",
							"params": {
								"spender": "Address that may be allowed to operate on tokens without being their owner."
							}
						}
					],
					"OwnableInvalidOwner(address)": [
						{
							"details": "The owner is not a valid owner account. (eg. `address(0)`)"
						}
					],
					"OwnableUnauthorizedAccount(address)": [
						{
							"details": "The caller account is not authorized to perform an operation."
						}
					]
				},
				"events": {
					"Approval(address,address,uint256)": {
						"details": "Emitted when the allowance of a `spender` for an `owner` is set by a call to {approve}. `value` is the new allowance."
					},
					"Transfer(address,address,uint256)": {
						"details": "Emitted when `value` tokens are moved from one account (`from`) to another (`to`). Note that `value` may be zero."
					}
				},
				"kind": "dev",
				"methods": {
					"allowance(address,address)": {
						"details": "Returns the remaining number of tokens that `spender` will be allowed to spend on behalf of `owner` through {transferFrom}. This is zero by default. This value changes when {approve} or {transferFrom} are called."
					},
					"approve(address,uint256)": {
						"details": "See {IERC20-approve}. NOTE: If `value` is the maximum `uint256`, the allowance is not updated on `transferFrom`. This is semantically equivalent to an infinite approval. Requirements: - `spender` cannot be the zero address."
					},
					"balanceOf(address)": {
						"details": "Returns the value of tokens owned by `account`."
					},
					"decimals()": {
						"details": "Returns the number of decimals used to get its user representation. For example, if `decimals` equals `2`, a balance of `505` tokens should be displayed to a user as `5.05` (`505 / 10 ** 2`). Tokens usually opt for a value of 18, imitating the relationship between Ether and Wei. This is the default value returned by this function, unless it's overridden. NOTE: This information is only used for _display_ purposes: it in no way affects any of the arithmetic of the contract, including {IERC20-balanceOf} and {IERC20-transfer}."
					},
					"name()": {
						"details": "Returns the name of the token."
					},
					"owner()": {
						"details": "Returns the address of the current owner."
					},
					"renounceOwnership()": {
						"details": "Leaves the contract without owner. It will not be possible to call `onlyOwner` functions. Can only be called by the current owner. NOTE: Renouncing ownership will leave the contract without an owner, thereby disabling any functionality that is only available to the owner."
					},
					"symbol()": {
						"details": "Returns the symbol of the token, usually a shorter version of the name."
					},
					"totalSupply()": {
						"details": "Returns the value of tokens in existence."
					},
					"transfer(address,uint256)": {
						"details": "See {IERC20-transfer}. Requirements: - `to` cannot be the zero address. - the caller must have a balance of at least `value`."
					},
					"transferFrom(address,address,uint256)": {
						"details": "See {IERC20-transferFrom}. Skips emitting an {Approval} event indicating an allowance update. This is not required by the ERC. See {xref-ERC20-_approve-address-address-uint256-bool-}[_approve]. NOTE: Does not update the allowance if the current allowance is the maximum `uint256`. Requirements: - `from` and `to` cannot be the zero address. - `from` must have a balance of at least `value`. - the caller must have allowance for ``from``'s tokens of at least `value`."
					},
					"transferOwnership(address)": {
						"details": "Transfers ownership of the contract to a new account (`newOwner`). Can only be called by the current owner."
					}
				},
				"version": 1
			},
			"evm": {
				"assembly": "    /* \"mytoken.sol\":22259:23010  contract CappedToken is ERC20, Ownable {... */\n  mstore(0x40, 0xa0)\n    /* \"mytoken.sol\":22379:22626  constructor(... */\n  callvalue\n  dup1\n  iszero\n  tag_1\n  jumpi\n  0x00\n  dup1\n  revert\ntag_1:\n  pop\n  mload(0x40)\n  sub(codesize, bytecodeSize)\n  dup1\n  bytecodeSize\n  dup4\n  codecopy\n  dup2\n  add\n  0x40\n  dup2\n  swap1\n  mstore\n  tag_2\n  swap2\n  tag_3\n  jump\t// in\ntag_2:\n    /* \"mytoken.sol\":22550:22560  msg.sender */\n  caller\n    /* \"mytoken.sol\":22526:22531  name_ */\n  dup4\n    /* \"mytoken.sol\":22533:22540  symbol_ */\n  dup4\n    /* \"mytoken.sol\":10295:10300  _name */\n  0x03\n    /* \"mytoken.sol\":10295:10308  _name = name_ */\n  tag_8\n    /* \"mytoken.sol\":22526:22531  name_ */\n  dup4\n    /* \"mytoken.sol\":10295:10300  _name */\n  dup3\n    /* \"mytoken.sol\":10295:10308  _name = name_ */\n  tag_9\n  jump\t// in\ntag_8:\n  pop\n    /* \"mytoken.sol\":10318:10325  _symbol */\n  0x04\n    /* \"mytoken.sol\":10318:10335  _symbol = symbol_ */\n  tag_10\n    /* \"mytoken.sol\":10328:10335  symbol_ */\n  dup3\n    /* \"mytoken.sol\":10318:10325  _symbol */\n  dup3\n    /* \"mytoken.sol\":10318:10335  _symbol = symbol_ */\n  tag_9\n  jump\t// in\ntag_10:\n  pop\n  pop\n  pop\n  sub(shl(0xa0, 0x01), 0x01)\n    /* \"mytoken.sol\":20430:20456  initialOwner == address(0) */\n  dup2\n  and\n    /* \"mytoken.sol\":20426:20521  if (initialOwner == address(0)) {... */\n  tag_12\n  jumpi\n    /* \"mytoken.sol\":20479:20510  OwnableInvalidOwner(address(0)) */\n  mload(0x40)\n  shl(0xe0, 0x1e4fbdf7)\n  dup2\n  mstore\n    /* \"mytoken.sol\":20507:20508  0 */\n  0x00\n    /* \"mytoken.sol\":20479:20510  OwnableInvalidOwner(address(0)) */\n  0x04\n  dup3\n  add\n    /* \"#utility.yul\":4354:4405   */\n  mstore\n    /* \"#utility.yul\":4327:4345   */\n  0x24\n  add\n    /* \"mytoken.sol\":20479:20510  OwnableInvalidOwner(address(0)) */\n  mload(0x40)\n  dup1\n  swap2\n  sub\n  swap1\n  revert\n    /* \"mytoken.sol\":20426:20521  if (initialOwner == address(0)) {... */\ntag_12:\n    /* \"mytoken.sol\":20530:20562  _transferOwnership(initialOwner) */\n  tag_15\n    /* \"mytoken.sol\":20549:20561  initialOwner */\n  dup2\n    /* \"mytoken.sol\":20530:20548  _transferOwnership */\n  tag_16\n    /* \"mytoken.sol\":20530:20562  _transferOwnership(initialOwner) */\n  jump\t// in\ntag_15:\n  pop\n    /* \"mytoken.sol\":22603:22619  10 ** decimals() */\n  tag_20\n    /* \"mytoken.sol\":11408:11410  18 */\n  0x12\n    /* \"mytoken.sol\":22603:22605  10 */\n  0x0a\n    /* \"mytoken.sol\":22603:22619  10 ** decimals() */\n  tag_21\n  jump\t// in\ntag_20:\n    /* \"mytoken.sol\":22585:22619  maxSupplyTokens * 10 ** decimals() */\n  tag_22\n  swap1\n    /* \"mytoken.sol\":22585:22600  maxSupplyTokens */\n  dup3\n    /* \"mytoken.sol\":22585:22619  maxSupplyTokens * 10 ** decimals() */\n  tag_23\n  jump\t// in\ntag_22:\n    /* \"mytoken.sol\":22572:22619  MAX_SUPPLY = maxSupplyTokens * 10 ** decimals() */\n  0x80\n  mstore\n  pop\n    /* \"mytoken.sol\":22259:23010  contract CappedToken is ERC20, Ownable {... */\n  tag_36\n  swap2\n  pop\n  pop\n  jump\n    /* \"mytoken.sol\":22069:22256  function _transferOwnership(address newOwner) internal virtual {... */\ntag_16:\n    /* \"mytoken.sol\":22161:22167  _owner */\n  0x05\n  dup1\n  sload\n  sub(shl(0xa0, 0x01), 0x01)\n    /* \"mytoken.sol\":22177:22194  _owner = newOwner */\n  dup4\n  dup2\n  and\n  not(sub(shl(0xa0, 0x01), 0x01))\n  dup4\n  and\n  dup2\n  or\n  swap1\n  swap4\n  sstore\n    /* \"mytoken.sol\":22209:22249  OwnershipTransferred(oldOwner, newOwner) */\n  mload(0x40)\n    /* \"mytoken.sol\":22161:22167  _owner */\n  swap2\n  and\n  swap2\n    /* \"mytoken.sol\":22177:22194  _owner = newOwner */\n  swap1\n    /* \"mytoken.sol\":22161:22167  _owner */\n  dup3\n  swap1\n    /* \"mytoken.sol\":22209:22249  OwnershipTransferred(oldOwner, newOwner) */\n  0x8be0079c531659141344cd1fd0a4f28419497f9722a3daafe3b4186f6b6457e0\n  swap1\n    /* \"mytoken.sol\":22142:22158  address oldOwner */\n  0x00\n  swap1\n    /* \"mytoken.sol\":22209:22249  OwnershipTransferred(oldOwner, newOwner) */\n  log3\n    /* \"mytoken.sol\":22132:22256  {... */\n  pop\n    /* \"mytoken.sol\":22069:22256  function _transferOwnership(address newOwner) internal virtual {... */\n  pop\n  jump\t// out\n    /* \"#utility.yul\":14:141   */\ntag_27:\n    /* \"#utility.yul\":75:85   */\n  0x4e487b71\n    /* \"#utility.yul\":70:73   */\n  0xe0\n    /* \"#utility.yul\":66:86   */\n  shl\n    /* \"#utility.yul\":63:64   */\n  0x00\n    /* \"#utility.yul\":56:87   */\n  mstore\n    /* \"#utility.yul\":106:110   */\n  0x41\n    /* \"#utility.yul\":103:104   */\n  0x04\n    /* \"#utility.yul\":96:111   */\n  mstore\n    /* \"#utility.yul\":130:134   */\n  0x24\n    /* \"#utility.yul\":127:128   */\n  0x00\n    /* \"#utility.yul\":120:135   */\n  revert\n    /* \"#utility.yul\":146:986   */\ntag_28:\n    /* \"#utility.yul\":200:205   */\n  0x00\n    /* \"#utility.yul\":253:256   */\n  dup3\n    /* \"#utility.yul\":246:250   */\n  0x1f\n    /* \"#utility.yul\":238:244   */\n  dup4\n    /* \"#utility.yul\":234:251   */\n  add\n    /* \"#utility.yul\":230:257   */\n  slt\n    /* \"#utility.yul\":220:275   */\n  tag_39\n  jumpi\n    /* \"#utility.yul\":271:272   */\n  0x00\n    /* \"#utility.yul\":268:269   */\n  dup1\n    /* \"#utility.yul\":261:273   */\n  revert\n    /* \"#utility.yul\":220:275   */\ntag_39:\n    /* \"#utility.yul\":294:307   */\n  dup2\n  mload\n  sub(shl(0x40, 0x01), 0x01)\n    /* \"#utility.yul\":356:366   */\n  dup1\n  dup3\n  gt\n    /* \"#utility.yul\":353:389   */\n  iszero\n  tag_41\n  jumpi\n    /* \"#utility.yul\":369:387   */\n  tag_41\n  tag_27\n  jump\t// in\ntag_41:\n    /* \"#utility.yul\":444:446   */\n  0x40\n    /* \"#utility.yul\":438:447   */\n  mload\n    /* \"#utility.yul\":412:414   */\n  0x1f\n    /* \"#utility.yul\":498:511   */\n  dup4\n  add\n  not(0x1f)\n    /* \"#utility.yul\":494:516   */\n  swap1\n  dup2\n  and\n    /* \"#utility.yul\":518:520   */\n  0x3f\n    /* \"#utility.yul\":490:521   */\n  add\n    /* \"#utility.yul\":486:526   */\n  and\n    /* \"#utility.yul\":474:527   */\n  dup2\n  add\n  swap1\n    /* \"#utility.yul\":542:560   */\n  dup3\n  dup3\n  gt\n    /* \"#utility.yul\":562:584   */\n  dup2\n  dup4\n  lt\n    /* \"#utility.yul\":539:585   */\n  or\n    /* \"#utility.yul\":536:608   */\n  iszero\n  tag_43\n  jumpi\n    /* \"#utility.yul\":588:606   */\n  tag_43\n  tag_27\n  jump\t// in\ntag_43:\n    /* \"#utility.yul\":628:638   */\n  dup2\n    /* \"#utility.yul\":624:626   */\n  0x40\n    /* \"#utility.yul\":617:639   */\n  mstore\n    /* \"#utility.yul\":663:665   */\n  dup4\n    /* \"#utility.yul\":655:661   */\n  dup2\n    /* \"#utility.yul\":648:666   */\n  mstore\n    /* \"#utility.yul\":685:689   */\n  0x20\n    /* \"#utility.yul\":675:689   */\n  swap3\n  pop\n    /* \"#utility.yul\":730:733   */\n  dup7\n    /* \"#utility.yul\":725:727   */\n  dup4\n    /* \"#utility.yul\":720:722   */\n  dup6\n    /* \"#utility.yul\":712:718   */\n  dup9\n    /* \"#utility.yul\":708:723   */\n  add\n    /* \"#utility.yul\":704:728   */\n  add\n    /* \"#utility.yul\":701:734   */\n  gt\n    /* \"#utility.yul\":698:751   */\n  iszero\n  tag_44\n  jumpi\n    /* \"#utility.yul\":747:748   */\n  0x00\n    /* \"#utility.yul\":744:745   */\n  dup1\n    /* \"#utility.yul\":737:749   */\n  revert\n    /* \"#utility.yul\":698:751   */\ntag_44:\n    /* \"#utility.yul\":769:770   */\n  0x00\n    /* \"#utility.yul\":760:770   */\n  swap2\n  pop\n    /* \"#utility.yul\":779:912   */\ntag_45:\n    /* \"#utility.yul\":793:795   */\n  dup4\n    /* \"#utility.yul\":790:791   */\n  dup3\n    /* \"#utility.yul\":787:796   */\n  lt\n    /* \"#utility.yul\":779:912   */\n  iszero\n  tag_47\n  jumpi\n    /* \"#utility.yul\":881:895   */\n  dup6\n  dup3\n  add\n    /* \"#utility.yul\":877:900   */\n  dup4\n  add\n    /* \"#utility.yul\":871:901   */\n  mload\n    /* \"#utility.yul\":850:864   */\n  dup2\n  dup4\n  add\n    /* \"#utility.yul\":846:869   */\n  dup5\n  add\n    /* \"#utility.yul\":839:902   */\n  mstore\n    /* \"#utility.yul\":804:814   */\n  swap1\n  dup3\n  add\n  swap1\n    /* \"#utility.yul\":779:912   */\n  jump(tag_45)\ntag_47:\n    /* \"#utility.yul\":954:955   */\n  0x00\n    /* \"#utility.yul\":932:947   */\n  swap4\n  dup2\n  add\n    /* \"#utility.yul\":928:952   */\n  swap1\n  swap3\n  add\n    /* \"#utility.yul\":921:956   */\n  swap3\n  swap1\n  swap3\n  mstore\n    /* \"#utility.yul\":936:942   */\n  swap5\n    /* \"#utility.yul\":146:986   */\n  swap4\n  pop\n  pop\n  pop\n  pop\n  jump\t// out\n    /* \"#utility.yul\":991:1614   */\ntag_3:\n    /* \"#utility.yul\":1099:1105   */\n  0x00\n    /* \"#utility.yul\":1107:1113   */\n  dup1\n    /* \"#utility.yul\":1115:1121   */\n  0x00\n    /* \"#utility.yul\":1168:1170   */\n  0x60\n    /* \"#utility.yul\":1156:1165   */\n  dup5\n    /* \"#utility.yul\":1147:1154   */\n  dup7\n    /* \"#utility.yul\":1143:1166   */\n  sub\n    /* \"#utility.yul\":1139:1171   */\n  slt\n    /* \"#utility.yul\":1136:1188   */\n  iszero\n  tag_49\n  jumpi\n    /* \"#utility.yul\":1184:1185   */\n  0x00\n    /* \"#utility.yul\":1181:1182   */\n  dup1\n    /* \"#utility.yul\":1174:1186   */\n  revert\n    /* \"#utility.yul\":1136:1188   */\ntag_49:\n    /* \"#utility.yul\":1211:1227   */\n  dup4\n  mload\n  sub(shl(0x40, 0x01), 0x01)\n    /* \"#utility.yul\":1276:1290   */\n  dup1\n  dup3\n  gt\n    /* \"#utility.yul\":1273:1307   */\n  iszero\n  tag_50\n  jumpi\n    /* \"#utility.yul\":1303:1304   */\n  0x00\n    /* \"#utility.yul\":1300:1301   */\n  dup1\n    /* \"#utility.yul\":1293:1305   */\n  revert\n    /* \"#utility.yul\":1273:1307   */\ntag_50:\n    /* \"#utility.yul\":1326:1387   */\n  tag_51\n    /* \"#utility.yul\":1379:1386   */\n  dup8\n    /* \"#utility.yul\":1370:1376   */\n  dup4\n    /* \"#utility.yul\":1359:1368   */\n  dup9\n    /* \"#utility.yul\":1355:1377   */\n  add\n    /* \"#utility.yul\":1326:1387   */\n  tag_28\n  jump\t// in\ntag_51:\n    /* \"#utility.yul\":1316:1387   */\n  swap5\n  pop\n    /* \"#utility.yul\":1433:1435   */\n  0x20\n    /* \"#utility.yul\":1422:1431   */\n  dup7\n    /* \"#utility.yul\":1418:1436   */\n  add\n    /* \"#utility.yul\":1412:1437   */\n  mload\n    /* \"#utility.yul\":1396:1437   */\n  swap2\n  pop\n    /* \"#utility.yul\":1462:1464   */\n  dup1\n    /* \"#utility.yul\":1452:1460   */\n  dup3\n    /* \"#utility.yul\":1449:1465   */\n  gt\n    /* \"#utility.yul\":1446:1482   */\n  iszero\n  tag_52\n  jumpi\n    /* \"#utility.yul\":1478:1479   */\n  0x00\n    /* \"#utility.yul\":1475:1476   */\n  dup1\n    /* \"#utility.yul\":1468:1480   */\n  revert\n    /* \"#utility.yul\":1446:1482   */\ntag_52:\n  pop\n    /* \"#utility.yul\":1501:1564   */\n  tag_53\n    /* \"#utility.yul\":1556:1563   */\n  dup7\n    /* \"#utility.yul\":1545:1553   */\n  dup3\n    /* \"#utility.yul\":1534:1543   */\n  dup8\n    /* \"#utility.yul\":1530:1554   */\n  add\n    /* \"#utility.yul\":1501:1564   */\n  tag_28\n  jump\t// in\ntag_53:\n    /* \"#utility.yul\":1491:1564   */\n  swap3\n  pop\n  pop\n    /* \"#utility.yul\":1604:1606   */\n  0x40\n    /* \"#utility.yul\":1593:1602   */\n  dup5\n    /* \"#utility.yul\":1589:1607   */\n  add\n    /* \"#utility.yul\":1583:1608   */\n  mload\n    /* \"#utility.yul\":1573:1608   */\n  swap1\n  pop\n    /* \"#utility.yul\":991:1614   */\n  swap3\n  pop\n  swap3\n  pop\n  swap3\n  jump\t// out\n    /* \"#utility.yul\":1619:1999   */\ntag_29:\n    /* \"#utility.yul\":1698:1699   */\n  0x01\n    /* \"#utility.yul\":1694:1706   */\n  dup2\n  dup2\n  shr\n  swap1\n    /* \"#utility.yul\":1741:1753   */\n  dup3\n  and\n  dup1\n    /* \"#utility.yul\":1762:1823   */\n  tag_55\n  jumpi\n    /* \"#utility.yul\":1816:1820   */\n  0x7f\n    /* \"#utility.yul\":1808:1814   */\n  dup3\n    /* \"#utility.yul\":1804:1821   */\n  and\n    /* \"#utility.yul\":1794:1821   */\n  swap2\n  pop\n    /* \"#utility.yul\":1762:1823   */\ntag_55:\n    /* \"#utility.yul\":1869:1871   */\n  0x20\n    /* \"#utility.yul\":1861:1867   */\n  dup3\n    /* \"#utility.yul\":1858:1872   */\n  lt\n    /* \"#utility.yul\":1838:1856   */\n  dup2\n    /* \"#utility.yul\":1835:1873   */\n  sub\n    /* \"#utility.yul\":1832:1993   */\n  tag_56\n  jumpi\n    /* \"#utility.yul\":1915:1925   */\n  0x4e487b71\n    /* \"#utility.yul\":1910:1913   */\n  0xe0\n    /* \"#utility.yul\":1906:1926   */\n  shl\n    /* \"#utility.yul\":1903:1904   */\n  0x00\n    /* \"#utility.yul\":1896:1927   */\n  mstore\n    /* \"#utility.yul\":1950:1954   */\n  0x22\n    /* \"#utility.yul\":1947:1948   */\n  0x04\n    /* \"#utility.yul\":1940:1955   */\n  mstore\n    /* \"#utility.yul\":1978:1982   */\n  0x24\n    /* \"#utility.yul\":1975:1976   */\n  0x00\n    /* \"#utility.yul\":1968:1983   */\n  revert\n    /* \"#utility.yul\":1832:1993   */\ntag_56:\n  pop\n    /* \"#utility.yul\":1619:1999   */\n  swap2\n  swap1\n  pop\n  jump\t// out\n    /* \"#utility.yul\":2130:2675   */\ntag_31:\n    /* \"#utility.yul\":2232:2234   */\n  0x1f\n    /* \"#utility.yul\":2227:2230   */\n  dup3\n    /* \"#utility.yul\":2224:2235   */\n  gt\n    /* \"#utility.yul\":2221:2669   */\n  iszero\n  tag_59\n  jumpi\n    /* \"#utility.yul\":2268:2269   */\n  0x00\n    /* \"#utility.yul\":2293:2298   */\n  dup2\n    /* \"#utility.yul\":2289:2291   */\n  dup2\n    /* \"#utility.yul\":2282:2299   */\n  mstore\n    /* \"#utility.yul\":2338:2342   */\n  0x20\n    /* \"#utility.yul\":2334:2336   */\n  dup2\n    /* \"#utility.yul\":2324:2343   */\n  keccak256\n    /* \"#utility.yul\":2408:2410   */\n  0x1f\n    /* \"#utility.yul\":2396:2406   */\n  dup6\n    /* \"#utility.yul\":2392:2411   */\n  add\n    /* \"#utility.yul\":2389:2390   */\n  0x05\n    /* \"#utility.yul\":2385:2412   */\n  shr\n    /* \"#utility.yul\":2379:2383   */\n  dup2\n    /* \"#utility.yul\":2375:2413   */\n  add\n    /* \"#utility.yul\":2444:2448   */\n  0x20\n    /* \"#utility.yul\":2432:2442   */\n  dup7\n    /* \"#utility.yul\":2429:2449   */\n  lt\n    /* \"#utility.yul\":2426:2473   */\n  iszero\n  tag_60\n  jumpi\n  pop\n    /* \"#utility.yul\":2467:2471   */\n  dup1\n    /* \"#utility.yul\":2426:2473   */\ntag_60:\n    /* \"#utility.yul\":2522:2524   */\n  0x1f\n    /* \"#utility.yul\":2517:2520   */\n  dup6\n    /* \"#utility.yul\":2513:2525   */\n  add\n    /* \"#utility.yul\":2510:2511   */\n  0x05\n    /* \"#utility.yul\":2506:2526   */\n  shr\n    /* \"#utility.yul\":2500:2504   */\n  dup3\n    /* \"#utility.yul\":2496:2527   */\n  add\n    /* \"#utility.yul\":2486:2527   */\n  swap2\n  pop\n    /* \"#utility.yul\":2577:2659   */\ntag_61:\n    /* \"#utility.yul\":2595:2597   */\n  dup2\n    /* \"#utility.yul\":2588:2593   */\n  dup2\n    /* \"#utility.yul\":2585:2598   */\n  lt\n    /* \"#utility.yul\":2577:2659   */\n  iszero\n  tag_63\n  jumpi\n    /* \"#utility.yul\":2640:2657   */\n  dup3\n  dup2\n  sstore\n    /* \"#utility.yul\":2621:2622   */\n  0x01\n    /* \"#utility.yul\":2610:2623   */\n  add\n    /* \"#utility.yul\":2577:2659   */\n  jump(tag_61)\ntag_63:\n    /* \"#utility.yul\":2581:2584   */\n  pop\n  pop\n  pop\n    /* \"#utility.yul\":2221:2669   */\ntag_59:\n    /* \"#utility.yul\":2130:2675   */\n  pop\n  pop\n  pop\n  jump\t// out\n    /* \"#utility.yul\":2851:4203   */\ntag_9:\n    /* \"#utility.yul\":2971:2981   */\n  dup2\n  mload\n  sub(shl(0x40, 0x01), 0x01)\n    /* \"#utility.yul\":2993:3023   */\n  dup2\n  gt\n    /* \"#utility.yul\":2990:3046   */\n  iszero\n  tag_67\n  jumpi\n    /* \"#utility.yul\":3026:3044   */\n  tag_67\n  tag_27\n  jump\t// in\ntag_67:\n    /* \"#utility.yul\":3055:3152   */\n  tag_68\n    /* \"#utility.yul\":3145:3151   */\n  dup2\n    /* \"#utility.yul\":3105:3143   */\n  tag_69\n    /* \"#utility.yul\":3137:3141   */\n  dup5\n    /* \"#utility.yul\":3131:3142   */\n  sload\n    /* \"#utility.yul\":3105:3143   */\n  tag_29\n  jump\t// in\ntag_69:\n    /* \"#utility.yul\":3099:3103   */\n  dup5\n    /* \"#utility.yul\":3055:3152   */\n  tag_31\n  jump\t// in\ntag_68:\n    /* \"#utility.yul\":3207:3211   */\n  0x20\n  dup1\n    /* \"#utility.yul\":3271:3273   */\n  0x1f\n    /* \"#utility.yul\":3260:3274   */\n  dup4\n  gt\n    /* \"#utility.yul\":3288:3289   */\n  0x01\n    /* \"#utility.yul\":3283:3946   */\n  dup2\n  eq\n  tag_71\n  jumpi\n    /* \"#utility.yul\":3990:3991   */\n  0x00\n    /* \"#utility.yul\":4007:4013   */\n  dup5\n    /* \"#utility.yul\":4004:4093   */\n  iszero\n  tag_72\n  jumpi\n  pop\n    /* \"#utility.yul\":4059:4078   */\n  dup6\n  dup4\n  add\n    /* \"#utility.yul\":4053:4079   */\n  mload\n    /* \"#utility.yul\":4004:4093   */\ntag_72:\n  not(0x00)\n    /* \"#utility.yul\":2808:2809   */\n  0x03\n    /* \"#utility.yul\":2804:2815   */\n  dup7\n  swap1\n  shl\n    /* \"#utility.yul\":2800:2824   */\n  shr\n    /* \"#utility.yul\":2796:2825   */\n  not\n    /* \"#utility.yul\":2786:2826   */\n  and\n    /* \"#utility.yul\":2832:2833   */\n  0x01\n    /* \"#utility.yul\":2828:2839   */\n  dup6\n  swap1\n  shl\n    /* \"#utility.yul\":2783:2840   */\n  or\n    /* \"#utility.yul\":4106:4187   */\n  dup6\n  sstore\n    /* \"#utility.yul\":3253:4197   */\n  jump(tag_63)\n    /* \"#utility.yul\":3283:3946   */\ntag_71:\n    /* \"#utility.yul\":2077:2078   */\n  0x00\n    /* \"#utility.yul\":2070:2084   */\n  dup6\n  dup2\n  mstore\n    /* \"#utility.yul\":2114:2118   */\n  0x20\n    /* \"#utility.yul\":2101:2119   */\n  dup2\n  keccak256\n  not(0x1f)\n    /* \"#utility.yul\":3319:3339   */\n  dup7\n  and\n  swap2\n    /* \"#utility.yul\":3437:3673   */\ntag_75:\n    /* \"#utility.yul\":3451:3458   */\n  dup3\n    /* \"#utility.yul\":3448:3449   */\n  dup2\n    /* \"#utility.yul\":3445:3459   */\n  lt\n    /* \"#utility.yul\":3437:3673   */\n  iszero\n  tag_77\n  jumpi\n    /* \"#utility.yul\":3540:3559   */\n  dup9\n  dup7\n  add\n    /* \"#utility.yul\":3534:3560   */\n  mload\n    /* \"#utility.yul\":3519:3561   */\n  dup3\n  sstore\n    /* \"#utility.yul\":3632:3659   */\n  swap5\n  dup5\n  add\n  swap5\n    /* \"#utility.yul\":3600:3601   */\n  0x01\n    /* \"#utility.yul\":3588:3602   */\n  swap1\n  swap2\n  add\n  swap1\n    /* \"#utility.yul\":3467:3486   */\n  dup5\n  add\n    /* \"#utility.yul\":3437:3673   */\n  jump(tag_75)\ntag_77:\n    /* \"#utility.yul\":3441:3444   */\n  pop\n    /* \"#utility.yul\":3701:3707   */\n  dup6\n    /* \"#utility.yul\":3692:3699   */\n  dup3\n    /* \"#utility.yul\":3689:3708   */\n  lt\n    /* \"#utility.yul\":3686:3887   */\n  iszero\n  tag_78\n  jumpi\n    /* \"#utility.yul\":3762:3781   */\n  dup8\n  dup6\n  add\n    /* \"#utility.yul\":3756:3782   */\n  mload\n  not(0x00)\n    /* \"#utility.yul\":3845:3846   */\n  0x03\n    /* \"#utility.yul\":3841:3855   */\n  dup9\n  swap1\n  shl\n    /* \"#utility.yul\":3857:3860   */\n  0xf8\n    /* \"#utility.yul\":3837:3861   */\n  and\n    /* \"#utility.yul\":3833:3870   */\n  shr\n    /* \"#utility.yul\":3829:3871   */\n  not\n    /* \"#utility.yul\":3814:3872   */\n  and\n    /* \"#utility.yul\":3799:3873   */\n  dup2\n  sstore\n    /* \"#utility.yul\":3686:3887   */\ntag_78:\n  pop\n  pop\n  pop\n  pop\n  pop\n    /* \"#utility.yul\":3933:3934   */\n  0x01\n    /* \"#utility.yul\":3917:3931   */\n  swap1\n  dup2\n  shl\n    /* \"#utility.yul\":3913:3935   */\n  add\n    /* \"#utility.yul\":3900:3936   */\n  swap1\n  sstore\n  pop\n    /* \"#utility.yul\":2851:4203   */\n  jump\t// out\n    /* \"#utility.yul\":4416:4543   */\ntag_33:\n    /* \"#utility.yul\":4477:4487   */\n  0x4e487b71\n    /* \"#utility.yul\":4472:4475   */\n  0xe0\n    /* \"#utility.yul\":4468:4488   */\n  shl\n    /* \"#utility.yul\":4465:4466   */\n  0x00\n    /* \"#utility.yul\":4458:4489   */\n  mstore\n    /* \"#utility.yul\":4508:4512   */\n  0x11\n    /* \"#utility.yul\":4505:4506   */\n  0x04\n    /* \"#utility.yul\":4498:4513   */\n  mstore\n    /* \"#utility.yul\":4532:4536   */\n  0x24\n    /* \"#utility.yul\":4529:4530   */\n  0x00\n    /* \"#utility.yul\":4522:4537   */\n  revert\n    /* \"#utility.yul\":4548:4970   */\ntag_34:\n    /* \"#utility.yul\":4637:4638   */\n  0x01\n    /* \"#utility.yul\":4680:4685   */\n  dup2\n    /* \"#utility.yul\":4637:4638   */\n  dup2\n    /* \"#utility.yul\":4694:4964   */\ntag_82:\n    /* \"#utility.yul\":4715:4722   */\n  dup1\n    /* \"#utility.yul\":4705:4713   */\n  dup6\n    /* \"#utility.yul\":4702:4723   */\n  gt\n    /* \"#utility.yul\":4694:4964   */\n  iszero\n  tag_84\n  jumpi\n    /* \"#utility.yul\":4774:4778   */\n  dup2\n    /* \"#utility.yul\":4770:4771   */\n  0x00\n    /* \"#utility.yul\":4766:4772   */\n  not\n    /* \"#utility.yul\":4762:4779   */\n  div\n    /* \"#utility.yul\":4756:4760   */\n  dup3\n    /* \"#utility.yul\":4753:4780   */\n  gt\n    /* \"#utility.yul\":4750:4803   */\n  iszero\n  tag_86\n  jumpi\n    /* \"#utility.yul\":4783:4801   */\n  tag_86\n  tag_33\n  jump\t// in\ntag_86:\n    /* \"#utility.yul\":4833:4840   */\n  dup1\n    /* \"#utility.yul\":4823:4831   */\n  dup6\n    /* \"#utility.yul\":4819:4841   */\n  and\n    /* \"#utility.yul\":4816:4871   */\n  iszero\n  tag_87\n  jumpi\n    /* \"#utility.yul\":4853:4869   */\n  swap2\n  dup2\n  mul\n  swap2\n    /* \"#utility.yul\":4816:4871   */\ntag_87:\n    /* \"#utility.yul\":4932:4954   */\n  swap4\n  dup5\n  shr\n  swap4\n    /* \"#utility.yul\":4892:4907   */\n  swap1\n  dup1\n  mul\n  swap1\n    /* \"#utility.yul\":4694:4964   */\n  jump(tag_82)\ntag_84:\n    /* \"#utility.yul\":4698:4701   */\n  pop\n    /* \"#utility.yul\":4548:4970   */\n  swap3\n  pop\n  swap3\n  swap1\n  pop\n  jump\t// out\n    /* \"#utility.yul\":4975:5781   */\ntag_35:\n    /* \"#utility.yul\":5024:5029   */\n  0x00\n    /* \"#utility.yul\":5054:5062   */\n  dup3\n    /* \"#utility.yul\":5044:5124   */\n  tag_89\n  jumpi\n  pop\n    /* \"#utility.yul\":5095:5096   */\n  0x01\n    /* \"#utility.yul\":5109:5114   */\n  jump(tag_88)\n    /* \"#utility.yul\":5044:5124   */\ntag_89:\n    /* \"#utility.yul\":5143:5147   */\n  dup2\n    /* \"#utility.yul\":5133:5209   */\n  tag_90\n  jumpi\n  pop\n    /* \"#utility.yul\":5180:5181   */\n  0x00\n    /* \"#utility.yul\":5194:5199   */\n  jump(tag_88)\n    /* \"#utility.yul\":5133:5209   */\ntag_90:\n    /* \"#utility.yul\":5225:5229   */\n  dup2\n    /* \"#utility.yul\":5243:5244   */\n  0x01\n    /* \"#utility.yul\":5238:5297   */\n  dup2\n  eq\n  tag_92\n  jumpi\n    /* \"#utility.yul\":5311:5312   */\n  0x02\n    /* \"#utility.yul\":5306:5436   */\n  dup2\n  eq\n  tag_93\n  jumpi\n    /* \"#utility.yul\":5218:5436   */\n  jump(tag_91)\n    /* \"#utility.yul\":5238:5297   */\ntag_92:\n    /* \"#utility.yul\":5268:5269   */\n  0x01\n    /* \"#utility.yul\":5259:5269   */\n  swap2\n  pop\n    /* \"#utility.yul\":5282:5287   */\n  pop\n  jump(tag_88)\n    /* \"#utility.yul\":5306:5436   */\ntag_93:\n    /* \"#utility.yul\":5343:5346   */\n  0xff\n    /* \"#utility.yul\":5333:5341   */\n  dup5\n    /* \"#utility.yul\":5330:5347   */\n  gt\n    /* \"#utility.yul\":5327:5370   */\n  iszero\n  tag_95\n  jumpi\n    /* \"#utility.yul\":5350:5368   */\n  tag_95\n  tag_33\n  jump\t// in\ntag_95:\n  pop\n  pop\n    /* \"#utility.yul\":5406:5407   */\n  0x01\n    /* \"#utility.yul\":5392:5408   */\n  dup3\n  shl\n    /* \"#utility.yul\":5421:5426   */\n  jump(tag_88)\n    /* \"#utility.yul\":5218:5436   */\ntag_91:\n  pop\n    /* \"#utility.yul\":5520:5522   */\n  0x20\n    /* \"#utility.yul\":5510:5518   */\n  dup4\n    /* \"#utility.yul\":5507:5523   */\n  lt\n    /* \"#utility.yul\":5501:5504   */\n  0x0133\n    /* \"#utility.yul\":5495:5499   */\n  dup4\n    /* \"#utility.yul\":5492:5505   */\n  lt\n    /* \"#utility.yul\":5488:5524   */\n  and\n    /* \"#utility.yul\":5482:5484   */\n  0x4e\n    /* \"#utility.yul\":5472:5480   */\n  dup5\n    /* \"#utility.yul\":5469:5485   */\n  lt\n    /* \"#utility.yul\":5464:5466   */\n  0x0b\n    /* \"#utility.yul\":5458:5462   */\n  dup5\n    /* \"#utility.yul\":5455:5467   */\n  lt\n    /* \"#utility.yul\":5451:5486   */\n  and\n    /* \"#utility.yul\":5448:5525   */\n  or\n    /* \"#utility.yul\":5445:5604   */\n  iszero\n  tag_96\n  jumpi\n  pop\n    /* \"#utility.yul\":5557:5576   */\n  dup2\n  dup2\n  exp\n    /* \"#utility.yul\":5589:5594   */\n  jump(tag_88)\n    /* \"#utility.yul\":5445:5604   */\ntag_96:\n    /* \"#utility.yul\":5636:5670   */\n  tag_97\n    /* \"#utility.yul\":5661:5669   */\n  dup4\n    /* \"#utility.yul\":5655:5659   */\n  dup4\n    /* \"#utility.yul\":5636:5670   */\n  tag_34\n  jump\t// in\ntag_97:\n    /* \"#utility.yul\":5706:5712   */\n  dup1\n    /* \"#utility.yul\":5702:5703   */\n  0x00\n    /* \"#utility.yul\":5698:5704   */\n  not\n    /* \"#utility.yul\":5694:5713   */\n  div\n    /* \"#utility.yul\":5685:5692   */\n  dup3\n    /* \"#utility.yul\":5682:5714   */\n  gt\n    /* \"#utility.yul\":5679:5737   */\n  iszero\n  tag_99\n  jumpi\n    /* \"#utility.yul\":5717:5735   */\n  tag_99\n  tag_33\n  jump\t// in\ntag_99:\n    /* \"#utility.yul\":5755:5775   */\n  mul\n  swap1\n  pop\n    /* \"#utility.yul\":4975:5781   */\ntag_88:\n  swap3\n  swap2\n  pop\n  pop\n  jump\t// out\n    /* \"#utility.yul\":5786:5926   */\ntag_21:\n    /* \"#utility.yul\":5844:5849   */\n  0x00\n    /* \"#utility.yul\":5873:5920   */\n  tag_101\n    /* \"#utility.yul\":5914:5918   */\n  0xff\n    /* \"#utility.yul\":5904:5912   */\n  dup5\n    /* \"#utility.yul\":5900:5919   */\n  and\n    /* \"#utility.yul\":5894:5898   */\n  dup4\n    /* \"#utility.yul\":5873:5920   */\n  tag_35\n  jump\t// in\ntag_101:\n    /* \"#utility.yul\":5864:5920   */\n  swap4\n    /* \"#utility.yul\":5786:5926   */\n  swap3\n  pop\n  pop\n  pop\n  jump\t// out\n    /* \"#utility.yul\":5931:6099   */\ntag_23:\n    /* \"#utility.yul\":6004:6013   */\n  dup1\n  dup3\n  mul\n    /* \"#utility.yul\":6035:6044   */\n  dup2\n  iszero\n    /* \"#utility.yul\":6052:6067   */\n  dup3\n  dup3\n  div\n    /* \"#utility.yul\":6046:6068   */\n  dup5\n  eq\n    /* \"#utility.yul\":6032:6069   */\n  or\n    /* \"#utility.yul\":6022:6093   */\n  tag_88\n  jumpi\n    /* \"#utility.yul\":6073:6091   */\n  tag_88\n  tag_33\n  jump\t// in\n    /* \"#utility.yul\":5931:6099   */\ntag_36:\n    /* \"mytoken.sol\":22259:23010  contract CappedToken is ERC20, Ownable {... */\n  mload(0x80)\n  codecopy(0x00, dataOffset(sub_0), dataSize(sub_0))\n  0x00\n  assignImmutable(\"0x6357266b9d53c0f9af6b7cc53f59dc85b165702d9398eebfa95f674cadfbd638\")\n  return(0x00, dataSize(sub_0))\nstop\n\nsub_0: assembly {\n        /* \"mytoken.sol\":22259:23010  contract CappedToken is ERC20, Ownable {... */\n      mstore(0x40, 0x80)\n      callvalue\n      dup1\n      iszero\n      tag_1\n      jumpi\n      0x00\n      dup1\n      revert\n    tag_1:\n      pop\n      jumpi(tag_2, lt(calldatasize, 0x04))\n      shr(0xe0, calldataload(0x00))\n      dup1\n      0x70a08231\n      gt\n      tag_19\n      jumpi\n      dup1\n      0x95d89b41\n      gt\n      tag_20\n      jumpi\n      dup1\n      0x95d89b41\n      eq\n      tag_15\n      jumpi\n      dup1\n      0xa9059cbb\n      eq\n      tag_16\n      jumpi\n      dup1\n      0xdd62ed3e\n      eq\n      tag_17\n      jumpi\n      dup1\n      0xf2fde38b\n      eq\n      tag_18\n      jumpi\n      0x00\n      dup1\n      revert\n    tag_20:\n      dup1\n      0x70a08231\n      eq\n      tag_11\n      jumpi\n      dup1\n      0x715018a6\n      eq\n      tag_12\n      jumpi\n      dup1\n      0x7d64bcb4\n      eq\n      tag_13\n      jumpi\n      dup1\n      0x8da5cb5b\n      eq\n      tag_14\n      jumpi\n      0x00\n      dup1\n      revert\n    tag_19:\n      dup1\n      0x23b872dd\n      gt\n      tag_21\n      jumpi\n      dup1\n      0x23b872dd\n      eq\n      tag_7\n      jumpi\n      dup1\n      0x313ce567\n      eq\n      tag_8\n      jumpi\n      dup1\n      0x32cb6b0c\n      eq\n      tag_9\n      jumpi\n      dup1\n      0x40c10f19\n      eq\n      tag_10\n      jumpi\n      0x00\n      dup1\n      revert\n    tag_21:\n      dup1\n      0x05d2035b\n      eq\n      tag_3\n      jumpi\n      dup1\n      0x06fdde03\n      eq\n      tag_4\n      jumpi\n      dup1\n      0x095ea7b3\n      eq\n      tag_5\n      jumpi\n      dup1\n      0x18160ddd\n      eq\n      tag_6\n      jumpi\n    tag_2:\n      0x00\n      dup1\n      revert\n        /* \"mytoken.sol\":22304:22331  bool public mintingFinished */\n    tag_3:\n      sload(0x05)\n      tag_22\n      swap1\n      shl(0xa0, 0x01)\n      swap1\n      div\n      0xff\n      and\n      dup2\n      jump\n    tag_22:\n      mload(0x40)\n        /* \"#utility.yul\":179:193   */\n      swap1\n      iszero\n        /* \"#utility.yul\":172:194   */\n      iszero\n        /* \"#utility.yul\":154:195   */\n      dup2\n      mstore\n        /* \"#utility.yul\":142:144   */\n      0x20\n        /* \"#utility.yul\":127:145   */\n      add\n        /* \"mytoken.sol\":22304:22331  bool public mintingFinished */\n    tag_24:\n      mload(0x40)\n      dup1\n      swap2\n      sub\n      swap1\n      return\n        /* \"mytoken.sol\":10407:10496  function name() public view virtual returns (string memory) {... */\n    tag_4:\n      tag_26\n      tag_27\n      jump\t// in\n    tag_26:\n      mload(0x40)\n      tag_24\n      swap2\n      swap1\n      tag_29\n      jump\t// in\n        /* \"mytoken.sol\":12549:12735  function approve(address spender, uint256 value) public virtual returns (bool) {... */\n    tag_5:\n      tag_22\n      tag_31\n      calldatasize\n      0x04\n      tag_32\n      jump\t// in\n    tag_31:\n      tag_33\n      jump\t// in\n        /* \"mytoken.sol\":11450:11547  function totalSupply() public view virtual returns (uint256) {... */\n    tag_6:\n        /* \"mytoken.sol\":11528:11540  _totalSupply */\n      sload(0x02)\n        /* \"mytoken.sol\":11450:11547  function totalSupply() public view virtual returns (uint256) {... */\n    tag_35:\n      mload(0x40)\n        /* \"#utility.yul\":1342:1367   */\n      swap1\n      dup2\n      mstore\n        /* \"#utility.yul\":1330:1332   */\n      0x20\n        /* \"#utility.yul\":1315:1333   */\n      add\n        /* \"mytoken.sol\":11450:11547  function totalSupply() public view virtual returns (uint256) {... */\n      tag_24\n        /* \"#utility.yul\":1196:1373   */\n      jump\n        /* \"mytoken.sol\":13327:13571  function transferFrom(address from, address to, uint256 value) public virtual returns (bool) {... */\n    tag_7:\n      tag_22\n      tag_40\n      calldatasize\n      0x04\n      tag_41\n      jump\t// in\n    tag_40:\n      tag_42\n      jump\t// in\n        /* \"mytoken.sol\":11335:11417  function decimals() public view virtual returns (uint8) {... */\n    tag_8:\n      mload(0x40)\n        /* \"mytoken.sol\":11408:11410  18 */\n      0x12\n        /* \"#utility.yul\":1853:1889   */\n      dup2\n      mstore\n        /* \"#utility.yul\":1841:1843   */\n      0x20\n        /* \"#utility.yul\":1826:1844   */\n      add\n        /* \"mytoken.sol\":11335:11417  function decimals() public view virtual returns (uint8) {... */\n      tag_24\n        /* \"#utility.yul\":1711:1895   */\n      jump\n        /* \"mytoken.sol\":22337:22372  uint256 public immutable MAX_SUPPLY */\n    tag_9:\n      tag_35\n      immutable(\"0x6357266b9d53c0f9af6b7cc53f59dc85b165702d9398eebfa95f674cadfbd638\")\n      dup2\n      jump\n        /* \"mytoken.sol\":22632:22919  function mint(address to, uint256 amountTokens) external onlyOwner {... */\n    tag_10:\n      tag_51\n      tag_52\n      calldatasize\n      0x04\n      tag_32\n      jump\t// in\n    tag_52:\n      tag_53\n      jump\t// in\n    tag_51:\n      stop\n        /* \"mytoken.sol\":11580:11696  function balanceOf(address account) public view virtual returns (uint256) {... */\n    tag_11:\n      tag_35\n      tag_55\n      calldatasize\n      0x04\n      tag_56\n      jump\t// in\n    tag_55:\n      sub(shl(0xa0, 0x01), 0x01)\n        /* \"mytoken.sol\":11671:11689  _balances[account] */\n      and\n        /* \"mytoken.sol\":11645:11652  uint256 */\n      0x00\n        /* \"mytoken.sol\":11671:11689  _balances[account] */\n      swap1\n      dup2\n      mstore\n      0x20\n      dup2\n      swap1\n      mstore\n      0x40\n      swap1\n      keccak256\n      sload\n      swap1\n        /* \"mytoken.sol\":11580:11696  function balanceOf(address account) public view virtual returns (uint256) {... */\n      jump\n        /* \"mytoken.sol\":21450:21551  function renounceOwnership() public virtual onlyOwner {... */\n    tag_12:\n      tag_51\n      tag_60\n      jump\t// in\n        /* \"mytoken.sol\":22925:23008  function finishMinting() external onlyOwner {... */\n    tag_13:\n      tag_51\n      tag_62\n      jump\t// in\n        /* \"mytoken.sol\":20795:20880  function owner() public view virtual returns (address) {... */\n    tag_14:\n        /* \"mytoken.sol\":20867:20873  _owner */\n      sload(0x05)\n        /* \"mytoken.sol\":20795:20880  function owner() public view virtual returns (address) {... */\n      mload(0x40)\n      sub(shl(0xa0, 0x01), 0x01)\n        /* \"mytoken.sol\":20867:20873  _owner */\n      swap1\n      swap2\n      and\n        /* \"#utility.yul\":2237:2288   */\n      dup2\n      mstore\n        /* \"#utility.yul\":2225:2227   */\n      0x20\n        /* \"#utility.yul\":2210:2228   */\n      add\n        /* \"mytoken.sol\":20795:20880  function owner() public view virtual returns (address) {... */\n      tag_24\n        /* \"#utility.yul\":2091:2294   */\n      jump\n        /* \"mytoken.sol\":10609:10702  function symbol() public view virtual returns (string memory) {... */\n    tag_15:\n      tag_26\n      tag_68\n      jump\t// in\n        /* \"mytoken.sol\":11891:12069  function transfer(address to, uint256 value) public virtual returns (bool) {... */\n    tag_16:\n      tag_22\n      tag_71\n      calldatasize\n      0x04\n      tag_32\n      jump\t// in\n    tag_71:\n      tag_72\n      jump\t// in\n        /* \"mytoken.sol\":12102:12242  function allowance(address owner, address spender) public view virtual returns (uint256) {... */\n    tag_17:\n      tag_35\n      tag_75\n      calldatasize\n      0x04\n      tag_76\n      jump\t// in\n    tag_75:\n      sub(shl(0xa0, 0x01), 0x01)\n        /* \"mytoken.sol\":12208:12226  _allowances[owner] */\n      swap2\n      dup3\n      and\n        /* \"mytoken.sol\":12182:12189  uint256 */\n      0x00\n        /* \"mytoken.sol\":12208:12226  _allowances[owner] */\n      swap1\n      dup2\n      mstore\n        /* \"mytoken.sol\":12208:12219  _allowances */\n      0x01\n        /* \"mytoken.sol\":12208:12226  _allowances[owner] */\n      0x20\n      swap1\n      dup2\n      mstore\n      0x40\n      dup1\n      dup4\n      keccak256\n        /* \"mytoken.sol\":12208:12235  _allowances[owner][spender] */\n      swap4\n      swap1\n      swap5\n      and\n      dup3\n      mstore\n      swap2\n      swap1\n      swap2\n      mstore\n      keccak256\n      sload\n      swap1\n        /* \"mytoken.sol\":12102:12242  function allowance(address owner, address spender) public view virtual returns (uint256) {... */\n      jump\n        /* \"mytoken.sol\":21700:21915  function transferOwnership(address newOwner) public virtual onlyOwner {... */\n    tag_18:\n      tag_51\n      tag_80\n      calldatasize\n      0x04\n      tag_56\n      jump\t// in\n    tag_80:\n      tag_81\n      jump\t// in\n        /* \"mytoken.sol\":10407:10496  function name() public view virtual returns (string memory) {... */\n    tag_27:\n        /* \"mytoken.sol\":10452:10465  string memory */\n      0x60\n        /* \"mytoken.sol\":10484:10489  _name */\n      0x03\n        /* \"mytoken.sol\":10477:10489  return _name */\n      dup1\n      sload\n      tag_83\n      swap1\n      tag_84\n      jump\t// in\n    tag_83:\n      dup1\n      0x1f\n      add\n      0x20\n      dup1\n      swap2\n      div\n      mul\n      0x20\n      add\n      mload(0x40)\n      swap1\n      dup2\n      add\n      0x40\n      mstore\n      dup1\n      swap3\n      swap2\n      swap1\n      dup2\n      dup2\n      mstore\n      0x20\n      add\n      dup3\n      dup1\n      sload\n      tag_85\n      swap1\n      tag_84\n      jump\t// in\n    tag_85:\n      dup1\n      iszero\n      tag_86\n      jumpi\n      dup1\n      0x1f\n      lt\n      tag_87\n      jumpi\n      0x0100\n      dup1\n      dup4\n      sload\n      div\n      mul\n      dup4\n      mstore\n      swap2\n      0x20\n      add\n      swap2\n      jump(tag_86)\n    tag_87:\n      dup3\n      add\n      swap2\n      swap1\n      0x00\n      mstore\n      keccak256(0x00, 0x20)\n      swap1\n    tag_88:\n      dup2\n      sload\n      dup2\n      mstore\n      swap1\n      0x01\n      add\n      swap1\n      0x20\n      add\n      dup1\n      dup4\n      gt\n      tag_88\n      jumpi\n      dup3\n      swap1\n      sub\n      0x1f\n      and\n      dup3\n      add\n      swap2\n    tag_86:\n      pop\n      pop\n      pop\n      pop\n      pop\n      swap1\n      pop\n        /* \"mytoken.sol\":10407:10496  function name() public view virtual returns (string memory) {... */\n      swap1\n      jump\t// out\n        /* \"mytoken.sol\":12549:12735  function approve(address spender, uint256 value) public virtual returns (bool) {... */\n    tag_33:\n        /* \"mytoken.sol\":12622:12626  bool */\n      0x00\n        /* \"mytoken.sol\":3266:3276  msg.sender */\n      caller\n        /* \"mytoken.sol\":12676:12707  _approve(owner, spender, value) */\n      tag_92\n        /* \"mytoken.sol\":3266:3276  msg.sender */\n      dup2\n        /* \"mytoken.sol\":12692:12699  spender */\n      dup6\n        /* \"mytoken.sol\":12701:12706  value */\n      dup6\n        /* \"mytoken.sol\":12676:12684  _approve */\n      tag_93\n        /* \"mytoken.sol\":12676:12707  _approve(owner, spender, value) */\n      jump\t// in\n    tag_92:\n        /* \"mytoken.sol\":12724:12728  true */\n      0x01\n        /* \"mytoken.sol\":12717:12728  return true */\n      swap2\n      pop\n      pop\n        /* \"mytoken.sol\":12549:12735  function approve(address spender, uint256 value) public virtual returns (bool) {... */\n    tag_89:\n      swap3\n      swap2\n      pop\n      pop\n      jump\t// out\n        /* \"mytoken.sol\":13327:13571  function transferFrom(address from, address to, uint256 value) public virtual returns (bool) {... */\n    tag_42:\n        /* \"mytoken.sol\":13414:13418  bool */\n      0x00\n        /* \"mytoken.sol\":3266:3276  msg.sender */\n      caller\n        /* \"mytoken.sol\":13470:13507  _spendAllowance(from, spender, value) */\n      tag_97\n        /* \"mytoken.sol\":13486:13490  from */\n      dup6\n        /* \"mytoken.sol\":3266:3276  msg.sender */\n      dup3\n        /* \"mytoken.sol\":13501:13506  value */\n      dup6\n        /* \"mytoken.sol\":13470:13485  _spendAllowance */\n      tag_98\n        /* \"mytoken.sol\":13470:13507  _spendAllowance(from, spender, value) */\n      jump\t// in\n    tag_97:\n        /* \"mytoken.sol\":13517:13543  _transfer(from, to, value) */\n      tag_99\n        /* \"mytoken.sol\":13527:13531  from */\n      dup6\n        /* \"mytoken.sol\":13533:13535  to */\n      dup6\n        /* \"mytoken.sol\":13537:13542  value */\n      dup6\n        /* \"mytoken.sol\":13517:13526  _transfer */\n      tag_100\n        /* \"mytoken.sol\":13517:13543  _transfer(from, to, value) */\n      jump\t// in\n    tag_99:\n      pop\n        /* \"mytoken.sol\":13560:13564  true */\n      0x01\n      swap5\n        /* \"mytoken.sol\":13327:13571  function transferFrom(address from, address to, uint256 value) public virtual returns (bool) {... */\n      swap4\n      pop\n      pop\n      pop\n      pop\n      jump\t// out\n        /* \"mytoken.sol\":22632:22919  function mint(address to, uint256 amountTokens) external onlyOwner {... */\n    tag_53:\n        /* \"mytoken.sol\":20688:20701  _checkOwner() */\n      tag_103\n        /* \"mytoken.sol\":20688:20699  _checkOwner */\n      tag_104\n        /* \"mytoken.sol\":20688:20701  _checkOwner() */\n      jump\t// in\n    tag_103:\n        /* \"mytoken.sol\":22718:22733  mintingFinished */\n      sload(0x05)\n      shl(0xa0, 0x01)\n      swap1\n      div\n      0xff\n      and\n        /* \"mytoken.sol\":22717:22733  !mintingFinished */\n      iszero\n        /* \"mytoken.sol\":22709:22754  require(!mintingFinished, \"Minting disabled\") */\n      tag_106\n      jumpi\n      mload(0x40)\n      shl(0xe5, 0x461bcd)\n      dup2\n      mstore\n        /* \"#utility.yul\":3151:3153   */\n      0x20\n        /* \"mytoken.sol\":22709:22754  require(!mintingFinished, \"Minting disabled\") */\n      0x04\n      dup3\n      add\n        /* \"#utility.yul\":3133:3154   */\n      mstore\n        /* \"#utility.yul\":3190:3192   */\n      0x10\n        /* \"#utility.yul\":3170:3188   */\n      0x24\n      dup3\n      add\n        /* \"#utility.yul\":3163:3193   */\n      mstore\n      shl(0x82, 0x135a5b9d1a5b99c8191a5cd8589b1959)\n        /* \"#utility.yul\":3209:3227   */\n      0x44\n      dup3\n      add\n        /* \"#utility.yul\":3202:3248   */\n      mstore\n        /* \"#utility.yul\":3265:3283   */\n      0x64\n      add\n        /* \"mytoken.sol\":22709:22754  require(!mintingFinished, \"Minting disabled\") */\n    tag_107:\n      mload(0x40)\n      dup1\n      swap2\n      sub\n      swap1\n      revert\n    tag_106:\n        /* \"mytoken.sol\":22765:22779  uint256 scaled */\n      0x00\n        /* \"mytoken.sol\":22797:22813  10 ** decimals() */\n      tag_110\n        /* \"mytoken.sol\":11408:11410  18 */\n      0x12\n        /* \"mytoken.sol\":22797:22799  10 */\n      0x0a\n        /* \"mytoken.sol\":22797:22813  10 ** decimals() */\n      tag_111\n      jump\t// in\n    tag_110:\n        /* \"mytoken.sol\":22782:22813  amountTokens * 10 ** decimals() */\n      tag_112\n      swap1\n        /* \"mytoken.sol\":22782:22794  amountTokens */\n      dup4\n        /* \"mytoken.sol\":22782:22813  amountTokens * 10 ** decimals() */\n      tag_113\n      jump\t// in\n    tag_112:\n        /* \"mytoken.sol\":22765:22813  uint256 scaled = amountTokens * 10 ** decimals() */\n      swap1\n      pop\n        /* \"mytoken.sol\":22857:22867  MAX_SUPPLY */\n      immutable(\"0x6357266b9d53c0f9af6b7cc53f59dc85b165702d9398eebfa95f674cadfbd638\")\n        /* \"mytoken.sol\":22847:22853  scaled */\n      dup2\n        /* \"mytoken.sol\":22831:22844  totalSupply() */\n      tag_114\n        /* \"mytoken.sol\":11528:11540  _totalSupply */\n      sload(0x02)\n      swap1\n        /* \"mytoken.sol\":11450:11547  function totalSupply() public view virtual returns (uint256) {... */\n      jump\n        /* \"mytoken.sol\":22831:22844  totalSupply() */\n    tag_114:\n        /* \"mytoken.sol\":22831:22853  totalSupply() + scaled */\n      tag_115\n      swap2\n      swap1\n      tag_116\n      jump\t// in\n    tag_115:\n        /* \"mytoken.sol\":22831:22867  totalSupply() + scaled <= MAX_SUPPLY */\n      gt\n      iszero\n        /* \"mytoken.sol\":22823:22884  require(totalSupply() + scaled <= MAX_SUPPLY, \"Cap exceeded\") */\n      tag_117\n      jumpi\n      mload(0x40)\n      shl(0xe5, 0x461bcd)\n      dup2\n      mstore\n        /* \"#utility.yul\":5314:5316   */\n      0x20\n        /* \"mytoken.sol\":22823:22884  require(totalSupply() + scaled <= MAX_SUPPLY, \"Cap exceeded\") */\n      0x04\n      dup3\n      add\n        /* \"#utility.yul\":5296:5317   */\n      mstore\n        /* \"#utility.yul\":5353:5355   */\n      0x0c\n        /* \"#utility.yul\":5333:5351   */\n      0x24\n      dup3\n      add\n        /* \"#utility.yul\":5326:5356   */\n      mstore\n      shl(0xa2, 0x10d85c08195e18d959591959)\n        /* \"#utility.yul\":5372:5390   */\n      0x44\n      dup3\n      add\n        /* \"#utility.yul\":5365:5407   */\n      mstore\n        /* \"#utility.yul\":5424:5442   */\n      0x64\n      add\n        /* \"mytoken.sol\":22823:22884  require(totalSupply() + scaled <= MAX_SUPPLY, \"Cap exceeded\") */\n      tag_107\n        /* \"#utility.yul\":5112:5448   */\n      jump\n        /* \"mytoken.sol\":22823:22884  require(totalSupply() + scaled <= MAX_SUPPLY, \"Cap exceeded\") */\n    tag_117:\n        /* \"mytoken.sol\":22895:22912  _mint(to, scaled) */\n      tag_120\n        /* \"mytoken.sol\":22901:22903  to */\n      dup4\n        /* \"mytoken.sol\":22905:22911  scaled */\n      dup3\n        /* \"mytoken.sol\":22895:22900  _mint */\n      tag_121\n        /* \"mytoken.sol\":22895:22912  _mint(to, scaled) */\n      jump\t// in\n    tag_120:\n        /* \"mytoken.sol\":22699:22919  {... */\n      pop\n        /* \"mytoken.sol\":22632:22919  function mint(address to, uint256 amountTokens) external onlyOwner {... */\n      pop\n      pop\n      jump\t// out\n        /* \"mytoken.sol\":21450:21551  function renounceOwnership() public virtual onlyOwner {... */\n    tag_60:\n        /* \"mytoken.sol\":20688:20701  _checkOwner() */\n      tag_124\n        /* \"mytoken.sol\":20688:20699  _checkOwner */\n      tag_104\n        /* \"mytoken.sol\":20688:20701  _checkOwner() */\n      jump\t// in\n    tag_124:\n        /* \"mytoken.sol\":21514:21544  _transferOwnership(address(0)) */\n      tag_126\n        /* \"mytoken.sol\":21541:21542  0 */\n      0x00\n        /* \"mytoken.sol\":21514:21532  _transferOwnership */\n      tag_127\n        /* \"mytoken.sol\":21514:21544  _transferOwnership(address(0)) */\n      jump\t// in\n    tag_126:\n        /* \"mytoken.sol\":21450:21551  function renounceOwnership() public virtual onlyOwner {... */\n      jump\t// out\n        /* \"mytoken.sol\":22925:23008  function finishMinting() external onlyOwner {... */\n    tag_62:\n        /* \"mytoken.sol\":20688:20701  _checkOwner() */\n      tag_129\n        /* \"mytoken.sol\":20688:20699  _checkOwner */\n      tag_104\n        /* \"mytoken.sol\":20688:20701  _checkOwner() */\n      jump\t// in\n    tag_129:\n        /* \"mytoken.sol\":22979:22994  mintingFinished */\n      0x05\n        /* \"mytoken.sol\":22979:23001  mintingFinished = true */\n      dup1\n      sload\n      not(shl(0xa0, 0xff))\n      and\n      shl(0xa0, 0x01)\n      or\n      swap1\n      sstore\n        /* \"mytoken.sol\":22925:23008  function finishMinting() external onlyOwner {... */\n      jump\t// out\n        /* \"mytoken.sol\":10609:10702  function symbol() public view virtual returns (string memory) {... */\n    tag_68:\n        /* \"mytoken.sol\":10656:10669  string memory */\n      0x60\n        /* \"mytoken.sol\":10688:10695  _symbol */\n      0x04\n        /* \"mytoken.sol\":10681:10695  return _symbol */\n      dup1\n      sload\n      tag_83\n      swap1\n      tag_84\n      jump\t// in\n        /* \"mytoken.sol\":11891:12069  function transfer(address to, uint256 value) public virtual returns (bool) {... */\n    tag_72:\n        /* \"mytoken.sol\":11960:11964  bool */\n      0x00\n        /* \"mytoken.sol\":3266:3276  msg.sender */\n      caller\n        /* \"mytoken.sol\":12014:12041  _transfer(owner, to, value) */\n      tag_92\n        /* \"mytoken.sol\":3266:3276  msg.sender */\n      dup2\n        /* \"mytoken.sol\":12031:12033  to */\n      dup6\n        /* \"mytoken.sol\":12035:12040  value */\n      dup6\n        /* \"mytoken.sol\":12014:12023  _transfer */\n      tag_100\n        /* \"mytoken.sol\":12014:12041  _transfer(owner, to, value) */\n      jump\t// in\n        /* \"mytoken.sol\":21700:21915  function transferOwnership(address newOwner) public virtual onlyOwner {... */\n    tag_81:\n        /* \"mytoken.sol\":20688:20701  _checkOwner() */\n      tag_143\n        /* \"mytoken.sol\":20688:20699  _checkOwner */\n      tag_104\n        /* \"mytoken.sol\":20688:20701  _checkOwner() */\n      jump\t// in\n    tag_143:\n      sub(shl(0xa0, 0x01), 0x01)\n        /* \"mytoken.sol\":21784:21806  newOwner == address(0) */\n      dup2\n      and\n        /* \"mytoken.sol\":21780:21871  if (newOwner == address(0)) {... */\n      tag_145\n      jumpi\n        /* \"mytoken.sol\":21829:21860  OwnableInvalidOwner(address(0)) */\n      mload(0x40)\n      shl(0xe0, 0x1e4fbdf7)\n      dup2\n      mstore\n        /* \"mytoken.sol\":21857:21858  0 */\n      0x00\n        /* \"mytoken.sol\":21829:21860  OwnableInvalidOwner(address(0)) */\n      0x04\n      dup3\n      add\n        /* \"#utility.yul\":2237:2288   */\n      mstore\n        /* \"#utility.yul\":2210:2228   */\n      0x24\n      add\n        /* \"mytoken.sol\":21829:21860  OwnableInvalidOwner(address(0)) */\n      tag_107\n        /* \"#utility.yul\":2091:2294   */\n      jump\n        /* \"mytoken.sol\":21780:21871  if (newOwner == address(0)) {... */\n    tag_145:\n        /* \"mytoken.sol\":21880:21908  _transferOwnership(newOwner) */\n      tag_147\n        /* \"mytoken.sol\":21899:21907  newOwner */\n      dup2\n        /* \"mytoken.sol\":21880:21898  _transferOwnership */\n      tag_127\n        /* \"mytoken.sol\":21880:21908  _transferOwnership(newOwner) */\n      jump\t// in\n    tag_147:\n        /* \"mytoken.sol\":21700:21915  function transferOwnership(address newOwner) public virtual onlyOwner {... */\n      pop\n      jump\t// out\n        /* \"mytoken.sol\":17277:17405  function _approve(address owner, address spender, uint256 value) internal {... */\n    tag_93:\n        /* \"mytoken.sol\":17361:17398  _approve(owner, spender, value, true) */\n      tag_120\n        /* \"mytoken.sol\":17370:17375  owner */\n      dup4\n        /* \"mytoken.sol\":17377:17384  spender */\n      dup4\n        /* \"mytoken.sol\":17386:17391  value */\n      dup4\n        /* \"mytoken.sol\":17393:17397  true */\n      0x01\n        /* \"mytoken.sol\":17361:17369  _approve */\n      tag_151\n        /* \"mytoken.sol\":17361:17398  _approve(owner, spender, value, true) */\n      jump\t// in\n        /* \"mytoken.sol\":18968:19444  function _spendAllowance(address owner, address spender, uint256 value) internal virtual {... */\n    tag_98:\n      sub(shl(0xa0, 0x01), 0x01)\n        /* \"mytoken.sol\":12208:12226  _allowances[owner] */\n      dup4\n      dup2\n      and\n        /* \"mytoken.sol\":19067:19091  uint256 currentAllowance */\n      0x00\n        /* \"mytoken.sol\":12208:12226  _allowances[owner] */\n      swap1\n      dup2\n      mstore\n        /* \"mytoken.sol\":12208:12219  _allowances */\n      0x01\n        /* \"mytoken.sol\":12208:12226  _allowances[owner] */\n      0x20\n      swap1\n      dup2\n      mstore\n      0x40\n      dup1\n      dup4\n      keccak256\n        /* \"mytoken.sol\":12208:12235  _allowances[owner][spender] */\n      swap4\n      dup7\n      and\n      dup4\n      mstore\n      swap3\n      swap1\n      mstore\n      keccak256\n      sload\n      not(0x00)\n        /* \"mytoken.sol\":19133:19169  currentAllowance < type(uint256).max */\n      dup2\n      lt\n        /* \"mytoken.sol\":19129:19438  if (currentAllowance < type(uint256).max) {... */\n      iszero\n      tag_158\n      jumpi\n        /* \"mytoken.sol\":19208:19213  value */\n      dup2\n        /* \"mytoken.sol\":19189:19205  currentAllowance */\n      dup2\n        /* \"mytoken.sol\":19189:19213  currentAllowance < value */\n      lt\n        /* \"mytoken.sol\":19185:19315  if (currentAllowance < value) {... */\n      iszero\n      tag_155\n      jumpi\n        /* \"mytoken.sol\":19240:19300  ERC20InsufficientAllowance(spender, currentAllowance, value) */\n      mload(0x40)\n      shl(0xe1, 0x7dc7a0d9)\n      dup2\n      mstore\n      sub(shl(0xa0, 0x01), 0x01)\n        /* \"#utility.yul\":5673:5705   */\n      dup5\n      and\n        /* \"mytoken.sol\":19240:19300  ERC20InsufficientAllowance(spender, currentAllowance, value) */\n      0x04\n      dup3\n      add\n        /* \"#utility.yul\":5655:5706   */\n      mstore\n        /* \"#utility.yul\":5722:5740   */\n      0x24\n      dup2\n      add\n        /* \"#utility.yul\":5715:5749   */\n      dup3\n      swap1\n      mstore\n        /* \"#utility.yul\":5765:5783   */\n      0x44\n      dup2\n      add\n        /* \"#utility.yul\":5758:5792   */\n      dup4\n      swap1\n      mstore\n        /* \"#utility.yul\":5628:5646   */\n      0x64\n      add\n        /* \"mytoken.sol\":19240:19300  ERC20InsufficientAllowance(spender, currentAllowance, value) */\n      tag_107\n        /* \"#utility.yul\":5453:5798   */\n      jump\n        /* \"mytoken.sol\":19185:19315  if (currentAllowance < value) {... */\n    tag_155:\n        /* \"mytoken.sol\":19356:19413  _approve(owner, spender, currentAllowance - value, false) */\n      tag_158\n        /* \"mytoken.sol\":19365:19370  owner */\n      dup5\n        /* \"mytoken.sol\":19372:19379  spender */\n      dup5\n        /* \"mytoken.sol\":19400:19405  value */\n      dup5\n        /* \"mytoken.sol\":19381:19397  currentAllowance */\n      dup5\n        /* \"mytoken.sol\":19381:19405  currentAllowance - value */\n      sub\n        /* \"mytoken.sol\":19407:19412  false */\n      0x00\n        /* \"mytoken.sol\":19356:19364  _approve */\n      tag_151\n        /* \"mytoken.sol\":19356:19413  _approve(owner, spender, currentAllowance - value, false) */\n      jump\t// in\n    tag_158:\n        /* \"mytoken.sol\":19057:19444  {... */\n      pop\n        /* \"mytoken.sol\":18968:19444  function _spendAllowance(address owner, address spender, uint256 value) internal virtual {... */\n      pop\n      pop\n      pop\n      jump\t// out\n        /* \"mytoken.sol\":13944:14244  function _transfer(address from, address to, uint256 value) internal {... */\n    tag_100:\n      sub(shl(0xa0, 0x01), 0x01)\n        /* \"mytoken.sol\":14027:14045  from == address(0) */\n      dup4\n      and\n        /* \"mytoken.sol\":14023:14109  if (from == address(0)) {... */\n      tag_160\n      jumpi\n        /* \"mytoken.sol\":14068:14098  ERC20InvalidSender(address(0)) */\n      mload(0x40)\n      shl(0xe1, 0x4b637e8f)\n      dup2\n      mstore\n        /* \"mytoken.sol\":14095:14096  0 */\n      0x00\n        /* \"mytoken.sol\":14068:14098  ERC20InvalidSender(address(0)) */\n      0x04\n      dup3\n      add\n        /* \"#utility.yul\":2237:2288   */\n      mstore\n        /* \"#utility.yul\":2210:2228   */\n      0x24\n      add\n        /* \"mytoken.sol\":14068:14098  ERC20InvalidSender(address(0)) */\n      tag_107\n        /* \"#utility.yul\":2091:2294   */\n      jump\n        /* \"mytoken.sol\":14023:14109  if (from == address(0)) {... */\n    tag_160:\n      sub(shl(0xa0, 0x01), 0x01)\n        /* \"mytoken.sol\":14122:14138  to == address(0) */\n      dup3\n      and\n        /* \"mytoken.sol\":14118:14204  if (to == address(0)) {... */\n      tag_162\n      jumpi\n        /* \"mytoken.sol\":14161:14193  ERC20InvalidReceiver(address(0)) */\n      mload(0x40)\n      shl(0xe0, 0xec442f05)\n      dup2\n      mstore\n        /* \"mytoken.sol\":14190:14191  0 */\n      0x00\n        /* \"mytoken.sol\":14161:14193  ERC20InvalidReceiver(address(0)) */\n      0x04\n      dup3\n      add\n        /* \"#utility.yul\":2237:2288   */\n      mstore\n        /* \"#utility.yul\":2210:2228   */\n      0x24\n      add\n        /* \"mytoken.sol\":14161:14193  ERC20InvalidReceiver(address(0)) */\n      tag_107\n        /* \"#utility.yul\":2091:2294   */\n      jump\n        /* \"mytoken.sol\":14118:14204  if (to == address(0)) {... */\n    tag_162:\n        /* \"mytoken.sol\":14213:14237  _update(from, to, value) */\n      tag_120\n        /* \"mytoken.sol\":14221:14225  from */\n      dup4\n        /* \"mytoken.sol\":14227:14229  to */\n      dup4\n        /* \"mytoken.sol\":14231:14236  value */\n      dup4\n        /* \"mytoken.sol\":14213:14220  _update */\n      tag_165\n        /* \"mytoken.sol\":14213:14237  _update(from, to, value) */\n      jump\t// in\n        /* \"mytoken.sol\":20953:21115  function _checkOwner() internal view virtual {... */\n    tag_104:\n        /* \"mytoken.sol\":20867:20873  _owner */\n      and(sub(shl(0xa0, 0x01), 0x01), sload(0x05))\n        /* \"mytoken.sol\":3266:3276  msg.sender */\n      caller\n        /* \"mytoken.sol\":21012:21035  owner() != _msgSender() */\n      eq\n        /* \"mytoken.sol\":21008:21109  if (owner() != _msgSender()) {... */\n      tag_126\n      jumpi\n        /* \"mytoken.sol\":21058:21098  OwnableUnauthorizedAccount(_msgSender()) */\n      mload(0x40)\n      shl(0xe0, 0x118cdaa7)\n      dup2\n      mstore\n        /* \"mytoken.sol\":3266:3276  msg.sender */\n      caller\n        /* \"mytoken.sol\":21058:21098  OwnableUnauthorizedAccount(_msgSender()) */\n      0x04\n      dup3\n      add\n        /* \"#utility.yul\":2237:2288   */\n      mstore\n        /* \"#utility.yul\":2210:2228   */\n      0x24\n      add\n        /* \"mytoken.sol\":21058:21098  OwnableUnauthorizedAccount(_msgSender()) */\n      tag_107\n        /* \"#utility.yul\":2091:2294   */\n      jump\n        /* \"mytoken.sol\":16009:16217  function _mint(address account, uint256 value) internal {... */\n    tag_121:\n      sub(shl(0xa0, 0x01), 0x01)\n        /* \"mytoken.sol\":16079:16100  account == address(0) */\n      dup3\n      and\n        /* \"mytoken.sol\":16075:16166  if (account == address(0)) {... */\n      tag_173\n      jumpi\n        /* \"mytoken.sol\":16123:16155  ERC20InvalidReceiver(address(0)) */\n      mload(0x40)\n      shl(0xe0, 0xec442f05)\n      dup2\n      mstore\n        /* \"mytoken.sol\":16152:16153  0 */\n      0x00\n        /* \"mytoken.sol\":16123:16155  ERC20InvalidReceiver(address(0)) */\n      0x04\n      dup3\n      add\n        /* \"#utility.yul\":2237:2288   */\n      mstore\n        /* \"#utility.yul\":2210:2228   */\n      0x24\n      add\n        /* \"mytoken.sol\":16123:16155  ERC20InvalidReceiver(address(0)) */\n      tag_107\n        /* \"#utility.yul\":2091:2294   */\n      jump\n        /* \"mytoken.sol\":16075:16166  if (account == address(0)) {... */\n    tag_173:\n        /* \"mytoken.sol\":16175:16210  _update(address(0), account, value) */\n      tag_175\n        /* \"mytoken.sol\":16191:16192  0 */\n      0x00\n        /* \"mytoken.sol\":16195:16202  account */\n      dup4\n        /* \"mytoken.sol\":16204:16209  value */\n      dup4\n        /* \"mytoken.sol\":16175:16182  _update */\n      tag_165\n        /* \"mytoken.sol\":16175:16210  _update(address(0), account, value) */\n      jump\t// in\n    tag_175:\n        /* \"mytoken.sol\":16009:16217  function _mint(address account, uint256 value) internal {... */\n      pop\n      pop\n      jump\t// out\n        /* \"mytoken.sol\":22069:22256  function _transferOwnership(address newOwner) internal virtual {... */\n    tag_127:\n        /* \"mytoken.sol\":22161:22167  _owner */\n      0x05\n      dup1\n      sload\n      sub(shl(0xa0, 0x01), 0x01)\n        /* \"mytoken.sol\":22177:22194  _owner = newOwner */\n      dup4\n      dup2\n      and\n      not(sub(shl(0xa0, 0x01), 0x01))\n      dup4\n      and\n      dup2\n      or\n      swap1\n      swap4\n      sstore\n        /* \"mytoken.sol\":22209:22249  OwnershipTransferred(oldOwner, newOwner) */\n      mload(0x40)\n        /* \"mytoken.sol\":22161:22167  _owner */\n      swap2\n      and\n      swap2\n        /* \"mytoken.sol\":22177:22194  _owner = newOwner */\n      swap1\n        /* \"mytoken.sol\":22161:22167  _owner */\n      dup3\n      swap1\n        /* \"mytoken.sol\":22209:22249  OwnershipTransferred(oldOwner, newOwner) */\n      0x8be0079c531659141344cd1fd0a4f28419497f9722a3daafe3b4186f6b6457e0\n      swap1\n        /* \"mytoken.sol\":22142:22158  address oldOwner */\n      0x00\n      swap1\n        /* \"mytoken.sol\":22209:22249  OwnershipTransferred(oldOwner, newOwner) */\n      log3\n        /* \"mytoken.sol\":22132:22256  {... */\n      pop\n        /* \"mytoken.sol\":22069:22256  function _transferOwnership(address newOwner) internal virtual {... */\n      pop\n      jump\t// out\n        /* \"mytoken.sol\":18254:18686  function _approve(address owner, address spender, uint256 value, bool emitEvent) internal virtual {... */\n    tag_151:\n      sub(shl(0xa0, 0x01), 0x01)\n        /* \"mytoken.sol\":18366:18385  owner == address(0) */\n      dup5\n      and\n        /* \"mytoken.sol\":18362:18451  if (owner == address(0)) {... */\n      tag_178\n      jumpi\n        /* \"mytoken.sol\":18408:18440  ERC20InvalidApprover(address(0)) */\n      mload(0x40)\n      shl(0xe0, 0xe602df05)\n      dup2\n      mstore\n        /* \"mytoken.sol\":18437:18438  0 */\n      0x00\n        /* \"mytoken.sol\":18408:18440  ERC20InvalidApprover(address(0)) */\n      0x04\n      dup3\n      add\n        /* \"#utility.yul\":2237:2288   */\n      mstore\n        /* \"#utility.yul\":2210:2228   */\n      0x24\n      add\n        /* \"mytoken.sol\":18408:18440  ERC20InvalidApprover(address(0)) */\n      tag_107\n        /* \"#utility.yul\":2091:2294   */\n      jump\n        /* \"mytoken.sol\":18362:18451  if (owner == address(0)) {... */\n    tag_178:\n      sub(shl(0xa0, 0x01), 0x01)\n        /* \"mytoken.sol\":18464:18485  spender == address(0) */\n      dup4\n      and\n        /* \"mytoken.sol\":18460:18550  if (spender == address(0)) {... */\n      tag_180\n      jumpi\n        /* \"mytoken.sol\":18508:18539  ERC20InvalidSpender(address(0)) */\n      mload(0x40)\n      shl(0xe1, 0x4a1406b1)\n      dup2\n      mstore\n        /* \"mytoken.sol\":18536:18537  0 */\n      0x00\n        /* \"mytoken.sol\":18508:18539  ERC20InvalidSpender(address(0)) */\n      0x04\n      dup3\n      add\n        /* \"#utility.yul\":2237:2288   */\n      mstore\n        /* \"#utility.yul\":2210:2228   */\n      0x24\n      add\n        /* \"mytoken.sol\":18508:18539  ERC20InvalidSpender(address(0)) */\n      tag_107\n        /* \"#utility.yul\":2091:2294   */\n      jump\n        /* \"mytoken.sol\":18460:18550  if (spender == address(0)) {... */\n    tag_180:\n      sub(shl(0xa0, 0x01), 0x01)\n        /* \"mytoken.sol\":18559:18577  _allowances[owner] */\n      dup1\n      dup6\n      and\n      0x00\n      swap1\n      dup2\n      mstore\n        /* \"mytoken.sol\":18559:18570  _allowances */\n      0x01\n        /* \"mytoken.sol\":18559:18577  _allowances[owner] */\n      0x20\n      swap1\n      dup2\n      mstore\n      0x40\n      dup1\n      dup4\n      keccak256\n        /* \"mytoken.sol\":18559:18586  _allowances[owner][spender] */\n      swap4\n      dup8\n      and\n      dup4\n      mstore\n      swap3\n      swap1\n      mstore\n      keccak256\n        /* \"mytoken.sol\":18559:18594  _allowances[owner][spender] = value */\n      dup3\n      swap1\n      sstore\n        /* \"mytoken.sol\":18604:18680  if (emitEvent) {... */\n      dup1\n      iszero\n      tag_158\n      jumpi\n        /* \"mytoken.sol\":18654:18661  spender */\n      dup3\n      sub(shl(0xa0, 0x01), 0x01)\n        /* \"mytoken.sol\":18638:18669  Approval(owner, spender, value) */\n      and\n        /* \"mytoken.sol\":18647:18652  owner */\n      dup5\n      sub(shl(0xa0, 0x01), 0x01)\n        /* \"mytoken.sol\":18638:18669  Approval(owner, spender, value) */\n      and\n      0x8c5be1e5ebec7d5bd14f71427d1e84f3dd0314c0f7b2291e5b200ac8c7c3b925\n        /* \"mytoken.sol\":18663:18668  value */\n      dup5\n        /* \"mytoken.sol\":18638:18669  Approval(owner, spender, value) */\n      mload(0x40)\n      tag_183\n      swap2\n        /* \"#utility.yul\":1342:1367   */\n      dup2\n      mstore\n        /* \"#utility.yul\":1330:1332   */\n      0x20\n        /* \"#utility.yul\":1315:1333   */\n      add\n      swap1\n        /* \"#utility.yul\":1196:1373   */\n      jump\n        /* \"mytoken.sol\":18638:18669  Approval(owner, spender, value) */\n    tag_183:\n      mload(0x40)\n      dup1\n      swap2\n      sub\n      swap1\n      log3\n        /* \"mytoken.sol\":18254:18686  function _approve(address owner, address spender, uint256 value, bool emitEvent) internal virtual {... */\n      pop\n      pop\n      pop\n      pop\n      jump\t// out\n        /* \"mytoken.sol\":14559:15666  function _update(address from, address to, uint256 value) internal virtual {... */\n    tag_165:\n      sub(shl(0xa0, 0x01), 0x01)\n        /* \"mytoken.sol\":14648:14666  from == address(0) */\n      dup4\n      and\n        /* \"mytoken.sol\":14644:15184  if (from == address(0)) {... */\n      tag_185\n      jumpi\n        /* \"mytoken.sol\":14800:14805  value */\n      dup1\n        /* \"mytoken.sol\":14784:14796  _totalSupply */\n      0x02\n      0x00\n        /* \"mytoken.sol\":14784:14805  _totalSupply += value */\n      dup3\n      dup3\n      sload\n      tag_186\n      swap2\n      swap1\n      tag_116\n      jump\t// in\n    tag_186:\n      swap1\n      swap2\n      sstore\n      pop\n        /* \"mytoken.sol\":14644:15184  if (from == address(0)) {... */\n      tag_187\n      swap1\n      pop\n      jump\n    tag_185:\n      sub(shl(0xa0, 0x01), 0x01)\n        /* \"mytoken.sol\":14858:14873  _balances[from] */\n      dup4\n      and\n        /* \"mytoken.sol\":14836:14855  uint256 fromBalance */\n      0x00\n        /* \"mytoken.sol\":14858:14873  _balances[from] */\n      swap1\n      dup2\n      mstore\n      0x20\n      dup2\n      swap1\n      mstore\n      0x40\n      swap1\n      keccak256\n      sload\n        /* \"mytoken.sol\":14891:14910  fromBalance < value */\n      dup2\n      dup2\n      lt\n        /* \"mytoken.sol\":14887:15002  if (fromBalance < value) {... */\n      iszero\n      tag_188\n      jumpi\n        /* \"mytoken.sol\":14937:14987  ERC20InsufficientBalance(from, fromBalance, value) */\n      mload(0x40)\n      shl(0xe2, 0x391434e3)\n      dup2\n      mstore\n      sub(shl(0xa0, 0x01), 0x01)\n        /* \"#utility.yul\":5673:5705   */\n      dup6\n      and\n        /* \"mytoken.sol\":14937:14987  ERC20InsufficientBalance(from, fromBalance, value) */\n      0x04\n      dup3\n      add\n        /* \"#utility.yul\":5655:5706   */\n      mstore\n        /* \"#utility.yul\":5722:5740   */\n      0x24\n      dup2\n      add\n        /* \"#utility.yul\":5715:5749   */\n      dup3\n      swap1\n      mstore\n        /* \"#utility.yul\":5765:5783   */\n      0x44\n      dup2\n      add\n        /* \"#utility.yul\":5758:5792   */\n      dup4\n      swap1\n      mstore\n        /* \"#utility.yul\":5628:5646   */\n      0x64\n      add\n        /* \"mytoken.sol\":14937:14987  ERC20InsufficientBalance(from, fromBalance, value) */\n      tag_107\n        /* \"#utility.yul\":5453:5798   */\n      jump\n        /* \"mytoken.sol\":14887:15002  if (fromBalance < value) {... */\n    tag_188:\n      sub(shl(0xa0, 0x01), 0x01)\n        /* \"mytoken.sol\":15122:15137  _balances[from] */\n      dup5\n      and\n        /* \"mytoken.sol\":15122:15131  _balances */\n      0x00\n        /* \"mytoken.sol\":15122:15137  _balances[from] */\n      swap1\n      dup2\n      mstore\n      0x20\n      dup2\n      swap1\n      mstore\n      0x40\n      swap1\n      keccak256\n        /* \"mytoken.sol\":15140:15159  fromBalance - value */\n      swap1\n      dup3\n      swap1\n      sub\n        /* \"mytoken.sol\":15122:15159  _balances[from] = fromBalance - value */\n      swap1\n      sstore\n        /* \"mytoken.sol\":14644:15184  if (from == address(0)) {... */\n    tag_187:\n      sub(shl(0xa0, 0x01), 0x01)\n        /* \"mytoken.sol\":15198:15214  to == address(0) */\n      dup3\n      and\n        /* \"mytoken.sol\":15194:15619  if (to == address(0)) {... */\n      tag_190\n      jumpi\n        /* \"mytoken.sol\":15361:15373  _totalSupply */\n      0x02\n        /* \"mytoken.sol\":15361:15382  _totalSupply -= value */\n      dup1\n      sload\n      dup3\n      swap1\n      sub\n      swap1\n      sstore\n        /* \"mytoken.sol\":15194:15619  if (to == address(0)) {... */\n      jump(tag_191)\n    tag_190:\n      sub(shl(0xa0, 0x01), 0x01)\n        /* \"mytoken.sol\":15572:15585  _balances[to] */\n      dup3\n      and\n        /* \"mytoken.sol\":15572:15581  _balances */\n      0x00\n        /* \"mytoken.sol\":15572:15585  _balances[to] */\n      swap1\n      dup2\n      mstore\n      0x20\n      dup2\n      swap1\n      mstore\n      0x40\n      swap1\n      keccak256\n        /* \"mytoken.sol\":15572:15594  _balances[to] += value */\n      dup1\n      sload\n      dup3\n      add\n      swap1\n      sstore\n        /* \"mytoken.sol\":15194:15619  if (to == address(0)) {... */\n    tag_191:\n        /* \"mytoken.sol\":15649:15651  to */\n      dup2\n      sub(shl(0xa0, 0x01), 0x01)\n        /* \"mytoken.sol\":15634:15659  Transfer(from, to, value) */\n      and\n        /* \"mytoken.sol\":15643:15647  from */\n      dup4\n      sub(shl(0xa0, 0x01), 0x01)\n        /* \"mytoken.sol\":15634:15659  Transfer(from, to, value) */\n      and\n      0xddf252ad1be2c89b69c2b068fc378daa952ba7f163c4a11628f55a4df523b3ef\n        /* \"mytoken.sol\":15653:15658  value */\n      dup4\n        /* \"mytoken.sol\":15634:15659  Transfer(from, to, value) */\n      mload(0x40)\n      tag_192\n      swap2\n        /* \"#utility.yul\":1342:1367   */\n      dup2\n      mstore\n        /* \"#utility.yul\":1330:1332   */\n      0x20\n        /* \"#utility.yul\":1315:1333   */\n      add\n      swap1\n        /* \"#utility.yul\":1196:1373   */\n      jump\n        /* \"mytoken.sol\":15634:15659  Transfer(from, to, value) */\n    tag_192:\n      mload(0x40)\n      dup1\n      swap2\n      sub\n      swap1\n      log3\n        /* \"mytoken.sol\":14559:15666  function _update(address from, address to, uint256 value) internal virtual {... */\n      pop\n      pop\n      pop\n      jump\t// out\n        /* \"#utility.yul\":206:754   */\n    tag_29:\n        /* \"#utility.yul\":318:322   */\n      0x00\n        /* \"#utility.yul\":347:349   */\n      0x20\n        /* \"#utility.yul\":376:378   */\n      dup1\n        /* \"#utility.yul\":365:374   */\n      dup4\n        /* \"#utility.yul\":358:379   */\n      mstore\n        /* \"#utility.yul\":408:414   */\n      dup4\n        /* \"#utility.yul\":402:415   */\n      mload\n        /* \"#utility.yul\":451:457   */\n      dup1\n        /* \"#utility.yul\":446:448   */\n      dup3\n        /* \"#utility.yul\":435:444   */\n      dup6\n        /* \"#utility.yul\":431:449   */\n      add\n        /* \"#utility.yul\":424:458   */\n      mstore\n        /* \"#utility.yul\":476:477   */\n      0x00\n        /* \"#utility.yul\":486:626   */\n    tag_200:\n        /* \"#utility.yul\":500:506   */\n      dup2\n        /* \"#utility.yul\":497:498   */\n      dup2\n        /* \"#utility.yul\":494:507   */\n      lt\n        /* \"#utility.yul\":486:626   */\n      iszero\n      tag_202\n      jumpi\n        /* \"#utility.yul\":595:609   */\n      dup6\n      dup2\n      add\n        /* \"#utility.yul\":591:614   */\n      dup4\n      add\n        /* \"#utility.yul\":585:615   */\n      mload\n        /* \"#utility.yul\":561:578   */\n      dup6\n      dup3\n      add\n        /* \"#utility.yul\":580:582   */\n      0x40\n        /* \"#utility.yul\":557:583   */\n      add\n        /* \"#utility.yul\":550:616   */\n      mstore\n        /* \"#utility.yul\":515:525   */\n      dup3\n      add\n        /* \"#utility.yul\":486:626   */\n      jump(tag_200)\n    tag_202:\n        /* \"#utility.yul\":490:493   */\n      pop\n        /* \"#utility.yul\":675:676   */\n      0x00\n        /* \"#utility.yul\":670:672   */\n      0x40\n        /* \"#utility.yul\":661:667   */\n      dup3\n        /* \"#utility.yul\":650:659   */\n      dup7\n        /* \"#utility.yul\":646:668   */\n      add\n        /* \"#utility.yul\":642:673   */\n      add\n        /* \"#utility.yul\":635:677   */\n      mstore\n        /* \"#utility.yul\":745:747   */\n      0x40\n        /* \"#utility.yul\":738:740   */\n      0x1f\n        /* \"#utility.yul\":734:741   */\n      not\n        /* \"#utility.yul\":729:731   */\n      0x1f\n        /* \"#utility.yul\":721:727   */\n      dup4\n        /* \"#utility.yul\":717:732   */\n      add\n        /* \"#utility.yul\":713:742   */\n      and\n        /* \"#utility.yul\":702:711   */\n      dup6\n        /* \"#utility.yul\":698:743   */\n      add\n        /* \"#utility.yul\":694:748   */\n      add\n        /* \"#utility.yul\":686:748   */\n      swap3\n      pop\n      pop\n      pop\n        /* \"#utility.yul\":206:754   */\n      swap3\n      swap2\n      pop\n      pop\n      jump\t// out\n        /* \"#utility.yul\":759:932   */\n    tag_193:\n        /* \"#utility.yul\":827:847   */\n      dup1\n      calldataload\n      sub(shl(0xa0, 0x01), 0x01)\n        /* \"#utility.yul\":876:907   */\n      dup2\n      and\n        /* \"#utility.yul\":866:908   */\n      dup2\n      eq\n        /* \"#utility.yul\":856:926   */\n      tag_204\n      jumpi\n        /* \"#utility.yul\":922:923   */\n      0x00\n        /* \"#utility.yul\":919:920   */\n      dup1\n        /* \"#utility.yul\":912:924   */\n      revert\n        /* \"#utility.yul\":856:926   */\n    tag_204:\n        /* \"#utility.yul\":759:932   */\n      swap2\n      swap1\n      pop\n      jump\t// out\n        /* \"#utility.yul\":937:1191   */\n    tag_32:\n        /* \"#utility.yul\":1005:1011   */\n      0x00\n        /* \"#utility.yul\":1013:1019   */\n      dup1\n        /* \"#utility.yul\":1066:1068   */\n      0x40\n        /* \"#utility.yul\":1054:1063   */\n      dup4\n        /* \"#utility.yul\":1045:1052   */\n      dup6\n        /* \"#utility.yul\":1041:1064   */\n      sub\n        /* \"#utility.yul\":1037:1069   */\n      slt\n        /* \"#utility.yul\":1034:1086   */\n      iszero\n      tag_206\n      jumpi\n        /* \"#utility.yul\":1082:1083   */\n      0x00\n        /* \"#utility.yul\":1079:1080   */\n      dup1\n        /* \"#utility.yul\":1072:1084   */\n      revert\n        /* \"#utility.yul\":1034:1086   */\n    tag_206:\n        /* \"#utility.yul\":1105:1134   */\n      tag_207\n        /* \"#utility.yul\":1124:1133   */\n      dup4\n        /* \"#utility.yul\":1105:1134   */\n      tag_193\n      jump\t// in\n    tag_207:\n        /* \"#utility.yul\":1095:1134   */\n      swap5\n        /* \"#utility.yul\":1181:1183   */\n      0x20\n        /* \"#utility.yul\":1166:1184   */\n      swap4\n      swap1\n      swap4\n      add\n        /* \"#utility.yul\":1153:1185   */\n      calldataload\n      swap4\n      pop\n      pop\n      pop\n        /* \"#utility.yul\":937:1191   */\n      jump\t// out\n        /* \"#utility.yul\":1378:1706   */\n    tag_41:\n        /* \"#utility.yul\":1455:1461   */\n      0x00\n        /* \"#utility.yul\":1463:1469   */\n      dup1\n        /* \"#utility.yul\":1471:1477   */\n      0x00\n        /* \"#utility.yul\":1524:1526   */\n      0x60\n        /* \"#utility.yul\":1512:1521   */\n      dup5\n        /* \"#utility.yul\":1503:1510   */\n      dup7\n        /* \"#utility.yul\":1499:1522   */\n      sub\n        /* \"#utility.yul\":1495:1527   */\n      slt\n        /* \"#utility.yul\":1492:1544   */\n      iszero\n      tag_210\n      jumpi\n        /* \"#utility.yul\":1540:1541   */\n      0x00\n        /* \"#utility.yul\":1537:1538   */\n      dup1\n        /* \"#utility.yul\":1530:1542   */\n      revert\n        /* \"#utility.yul\":1492:1544   */\n    tag_210:\n        /* \"#utility.yul\":1563:1592   */\n      tag_211\n        /* \"#utility.yul\":1582:1591   */\n      dup5\n        /* \"#utility.yul\":1563:1592   */\n      tag_193\n      jump\t// in\n    tag_211:\n        /* \"#utility.yul\":1553:1592   */\n      swap3\n      pop\n        /* \"#utility.yul\":1611:1649   */\n      tag_212\n        /* \"#utility.yul\":1645:1647   */\n      0x20\n        /* \"#utility.yul\":1634:1643   */\n      dup6\n        /* \"#utility.yul\":1630:1648   */\n      add\n        /* \"#utility.yul\":1611:1649   */\n      tag_193\n      jump\t// in\n    tag_212:\n        /* \"#utility.yul\":1601:1649   */\n      swap2\n      pop\n        /* \"#utility.yul\":1696:1698   */\n      0x40\n        /* \"#utility.yul\":1685:1694   */\n      dup5\n        /* \"#utility.yul\":1681:1699   */\n      add\n        /* \"#utility.yul\":1668:1700   */\n      calldataload\n        /* \"#utility.yul\":1658:1700   */\n      swap1\n      pop\n        /* \"#utility.yul\":1378:1706   */\n      swap3\n      pop\n      swap3\n      pop\n      swap3\n      jump\t// out\n        /* \"#utility.yul\":1900:2086   */\n    tag_56:\n        /* \"#utility.yul\":1959:1965   */\n      0x00\n        /* \"#utility.yul\":2012:2014   */\n      0x20\n        /* \"#utility.yul\":2000:2009   */\n      dup3\n        /* \"#utility.yul\":1991:1998   */\n      dup5\n        /* \"#utility.yul\":1987:2010   */\n      sub\n        /* \"#utility.yul\":1983:2015   */\n      slt\n        /* \"#utility.yul\":1980:2032   */\n      iszero\n      tag_215\n      jumpi\n        /* \"#utility.yul\":2028:2029   */\n      0x00\n        /* \"#utility.yul\":2025:2026   */\n      dup1\n        /* \"#utility.yul\":2018:2030   */\n      revert\n        /* \"#utility.yul\":1980:2032   */\n    tag_215:\n        /* \"#utility.yul\":2051:2080   */\n      tag_216\n        /* \"#utility.yul\":2070:2079   */\n      dup3\n        /* \"#utility.yul\":2051:2080   */\n      tag_193\n      jump\t// in\n    tag_216:\n        /* \"#utility.yul\":2041:2080   */\n      swap4\n        /* \"#utility.yul\":1900:2086   */\n      swap3\n      pop\n      pop\n      pop\n      jump\t// out\n        /* \"#utility.yul\":2299:2559   */\n    tag_76:\n        /* \"#utility.yul\":2367:2373   */\n      0x00\n        /* \"#utility.yul\":2375:2381   */\n      dup1\n        /* \"#utility.yul\":2428:2430   */\n      0x40\n        /* \"#utility.yul\":2416:2425   */\n      dup4\n        /* \"#utility.yul\":2407:2414   */\n      dup6\n        /* \"#utility.yul\":2403:2426   */\n      sub\n        /* \"#utility.yul\":2399:2431   */\n      slt\n        /* \"#utility.yul\":2396:2448   */\n      iszero\n      tag_219\n      jumpi\n        /* \"#utility.yul\":2444:2445   */\n      0x00\n        /* \"#utility.yul\":2441:2442   */\n      dup1\n        /* \"#utility.yul\":2434:2446   */\n      revert\n        /* \"#utility.yul\":2396:2448   */\n    tag_219:\n        /* \"#utility.yul\":2467:2496   */\n      tag_220\n        /* \"#utility.yul\":2486:2495   */\n      dup4\n        /* \"#utility.yul\":2467:2496   */\n      tag_193\n      jump\t// in\n    tag_220:\n        /* \"#utility.yul\":2457:2496   */\n      swap2\n      pop\n        /* \"#utility.yul\":2515:2553   */\n      tag_221\n        /* \"#utility.yul\":2549:2551   */\n      0x20\n        /* \"#utility.yul\":2538:2547   */\n      dup5\n        /* \"#utility.yul\":2534:2552   */\n      add\n        /* \"#utility.yul\":2515:2553   */\n      tag_193\n      jump\t// in\n    tag_221:\n        /* \"#utility.yul\":2505:2553   */\n      swap1\n      pop\n        /* \"#utility.yul\":2299:2559   */\n      swap3\n      pop\n      swap3\n      swap1\n      pop\n      jump\t// out\n        /* \"#utility.yul\":2564:2944   */\n    tag_84:\n        /* \"#utility.yul\":2643:2644   */\n      0x01\n        /* \"#utility.yul\":2639:2651   */\n      dup2\n      dup2\n      shr\n      swap1\n        /* \"#utility.yul\":2686:2698   */\n      dup3\n      and\n      dup1\n        /* \"#utility.yul\":2707:2768   */\n      tag_223\n      jumpi\n        /* \"#utility.yul\":2761:2765   */\n      0x7f\n        /* \"#utility.yul\":2753:2759   */\n      dup3\n        /* \"#utility.yul\":2749:2766   */\n      and\n        /* \"#utility.yul\":2739:2766   */\n      swap2\n      pop\n        /* \"#utility.yul\":2707:2768   */\n    tag_223:\n        /* \"#utility.yul\":2814:2816   */\n      0x20\n        /* \"#utility.yul\":2806:2812   */\n      dup3\n        /* \"#utility.yul\":2803:2817   */\n      lt\n        /* \"#utility.yul\":2783:2801   */\n      dup2\n        /* \"#utility.yul\":2780:2818   */\n      sub\n        /* \"#utility.yul\":2777:2938   */\n      tag_224\n      jumpi\n        /* \"#utility.yul\":2860:2870   */\n      0x4e487b71\n        /* \"#utility.yul\":2855:2858   */\n      0xe0\n        /* \"#utility.yul\":2851:2871   */\n      shl\n        /* \"#utility.yul\":2848:2849   */\n      0x00\n        /* \"#utility.yul\":2841:2872   */\n      mstore\n        /* \"#utility.yul\":2895:2899   */\n      0x22\n        /* \"#utility.yul\":2892:2893   */\n      0x04\n        /* \"#utility.yul\":2885:2900   */\n      mstore\n        /* \"#utility.yul\":2923:2927   */\n      0x24\n        /* \"#utility.yul\":2920:2921   */\n      0x00\n        /* \"#utility.yul\":2913:2928   */\n      revert\n        /* \"#utility.yul\":2777:2938   */\n    tag_224:\n      pop\n        /* \"#utility.yul\":2564:2944   */\n      swap2\n      swap1\n      pop\n      jump\t// out\n        /* \"#utility.yul\":3294:3421   */\n    tag_194:\n        /* \"#utility.yul\":3355:3365   */\n      0x4e487b71\n        /* \"#utility.yul\":3350:3353   */\n      0xe0\n        /* \"#utility.yul\":3346:3366   */\n      shl\n        /* \"#utility.yul\":3343:3344   */\n      0x00\n        /* \"#utility.yul\":3336:3367   */\n      mstore\n        /* \"#utility.yul\":3386:3390   */\n      0x11\n        /* \"#utility.yul\":3383:3384   */\n      0x04\n        /* \"#utility.yul\":3376:3391   */\n      mstore\n        /* \"#utility.yul\":3410:3414   */\n      0x24\n        /* \"#utility.yul\":3407:3408   */\n      0x00\n        /* \"#utility.yul\":3400:3415   */\n      revert\n        /* \"#utility.yul\":3426:3848   */\n    tag_195:\n        /* \"#utility.yul\":3515:3516   */\n      0x01\n        /* \"#utility.yul\":3558:3563   */\n      dup2\n        /* \"#utility.yul\":3515:3516   */\n      dup2\n        /* \"#utility.yul\":3572:3842   */\n    tag_228:\n        /* \"#utility.yul\":3593:3600   */\n      dup1\n        /* \"#utility.yul\":3583:3591   */\n      dup6\n        /* \"#utility.yul\":3580:3601   */\n      gt\n        /* \"#utility.yul\":3572:3842   */\n      iszero\n      tag_230\n      jumpi\n        /* \"#utility.yul\":3652:3656   */\n      dup2\n        /* \"#utility.yul\":3648:3649   */\n      0x00\n        /* \"#utility.yul\":3644:3650   */\n      not\n        /* \"#utility.yul\":3640:3657   */\n      div\n        /* \"#utility.yul\":3634:3638   */\n      dup3\n        /* \"#utility.yul\":3631:3658   */\n      gt\n        /* \"#utility.yul\":3628:3681   */\n      iszero\n      tag_232\n      jumpi\n        /* \"#utility.yul\":3661:3679   */\n      tag_232\n      tag_194\n      jump\t// in\n    tag_232:\n        /* \"#utility.yul\":3711:3718   */\n      dup1\n        /* \"#utility.yul\":3701:3709   */\n      dup6\n        /* \"#utility.yul\":3697:3719   */\n      and\n        /* \"#utility.yul\":3694:3749   */\n      iszero\n      tag_233\n      jumpi\n        /* \"#utility.yul\":3731:3747   */\n      swap2\n      dup2\n      mul\n      swap2\n        /* \"#utility.yul\":3694:3749   */\n    tag_233:\n        /* \"#utility.yul\":3810:3832   */\n      swap4\n      dup5\n      shr\n      swap4\n        /* \"#utility.yul\":3770:3785   */\n      swap1\n      dup1\n      mul\n      swap1\n        /* \"#utility.yul\":3572:3842   */\n      jump(tag_228)\n    tag_230:\n        /* \"#utility.yul\":3576:3579   */\n      pop\n        /* \"#utility.yul\":3426:3848   */\n      swap3\n      pop\n      swap3\n      swap1\n      pop\n      jump\t// out\n        /* \"#utility.yul\":3853:4659   */\n    tag_196:\n        /* \"#utility.yul\":3902:3907   */\n      0x00\n        /* \"#utility.yul\":3932:3940   */\n      dup3\n        /* \"#utility.yul\":3922:4002   */\n      tag_235\n      jumpi\n      pop\n        /* \"#utility.yul\":3973:3974   */\n      0x01\n        /* \"#utility.yul\":3987:3992   */\n      jump(tag_89)\n        /* \"#utility.yul\":3922:4002   */\n    tag_235:\n        /* \"#utility.yul\":4021:4025   */\n      dup2\n        /* \"#utility.yul\":4011:4087   */\n      tag_236\n      jumpi\n      pop\n        /* \"#utility.yul\":4058:4059   */\n      0x00\n        /* \"#utility.yul\":4072:4077   */\n      jump(tag_89)\n        /* \"#utility.yul\":4011:4087   */\n    tag_236:\n        /* \"#utility.yul\":4103:4107   */\n      dup2\n        /* \"#utility.yul\":4121:4122   */\n      0x01\n        /* \"#utility.yul\":4116:4175   */\n      dup2\n      eq\n      tag_238\n      jumpi\n        /* \"#utility.yul\":4189:4190   */\n      0x02\n        /* \"#utility.yul\":4184:4314   */\n      dup2\n      eq\n      tag_239\n      jumpi\n        /* \"#utility.yul\":4096:4314   */\n      jump(tag_237)\n        /* \"#utility.yul\":4116:4175   */\n    tag_238:\n        /* \"#utility.yul\":4146:4147   */\n      0x01\n        /* \"#utility.yul\":4137:4147   */\n      swap2\n      pop\n        /* \"#utility.yul\":4160:4165   */\n      pop\n      jump(tag_89)\n        /* \"#utility.yul\":4184:4314   */\n    tag_239:\n        /* \"#utility.yul\":4221:4224   */\n      0xff\n        /* \"#utility.yul\":4211:4219   */\n      dup5\n        /* \"#utility.yul\":4208:4225   */\n      gt\n        /* \"#utility.yul\":4205:4248   */\n      iszero\n      tag_241\n      jumpi\n        /* \"#utility.yul\":4228:4246   */\n      tag_241\n      tag_194\n      jump\t// in\n    tag_241:\n      pop\n      pop\n        /* \"#utility.yul\":4284:4285   */\n      0x01\n        /* \"#utility.yul\":4270:4286   */\n      dup3\n      shl\n        /* \"#utility.yul\":4299:4304   */\n      jump(tag_89)\n        /* \"#utility.yul\":4096:4314   */\n    tag_237:\n      pop\n        /* \"#utility.yul\":4398:4400   */\n      0x20\n        /* \"#utility.yul\":4388:4396   */\n      dup4\n        /* \"#utility.yul\":4385:4401   */\n      lt\n        /* \"#utility.yul\":4379:4382   */\n      0x0133\n        /* \"#utility.yul\":4373:4377   */\n      dup4\n        /* \"#utility.yul\":4370:4383   */\n      lt\n        /* \"#utility.yul\":4366:4402   */\n      and\n        /* \"#utility.yul\":4360:4362   */\n      0x4e\n        /* \"#utility.yul\":4350:4358   */\n      dup5\n        /* \"#utility.yul\":4347:4363   */\n      lt\n        /* \"#utility.yul\":4342:4344   */\n      0x0b\n        /* \"#utility.yul\":4336:4340   */\n      dup5\n        /* \"#utility.yul\":4333:4345   */\n      lt\n        /* \"#utility.yul\":4329:4364   */\n      and\n        /* \"#utility.yul\":4326:4403   */\n      or\n        /* \"#utility.yul\":4323:4482   */\n      iszero\n      tag_242\n      jumpi\n      pop\n        /* \"#utility.yul\":4435:4454   */\n      dup2\n      dup2\n      exp\n        /* \"#utility.yul\":4467:4472   */\n      jump(tag_89)\n        /* \"#utility.yul\":4323:4482   */\n    tag_242:\n        /* \"#utility.yul\":4514:4548   */\n      tag_243\n        /* \"#utility.yul\":4539:4547   */\n      dup4\n        /* \"#utility.yul\":4533:4537   */\n      dup4\n        /* \"#utility.yul\":4514:4548   */\n      tag_195\n      jump\t// in\n    tag_243:\n        /* \"#utility.yul\":4584:4590   */\n      dup1\n        /* \"#utility.yul\":4580:4581   */\n      0x00\n        /* \"#utility.yul\":4576:4582   */\n      not\n        /* \"#utility.yul\":4572:4591   */\n      div\n        /* \"#utility.yul\":4563:4570   */\n      dup3\n        /* \"#utility.yul\":4560:4592   */\n      gt\n        /* \"#utility.yul\":4557:4615   */\n      iszero\n      tag_245\n      jumpi\n        /* \"#utility.yul\":4595:4613   */\n      tag_245\n      tag_194\n      jump\t// in\n    tag_245:\n        /* \"#utility.yul\":4633:4653   */\n      mul\n      swap4\n        /* \"#utility.yul\":3853:4659   */\n      swap3\n      pop\n      pop\n      pop\n      jump\t// out\n        /* \"#utility.yul\":4664:4804   */\n    tag_111:\n        /* \"#utility.yul\":4722:4727   */\n      0x00\n        /* \"#utility.yul\":4751:4798   */\n      tag_216\n        /* \"#utility.yul\":4792:4796   */\n      0xff\n        /* \"#utility.yul\":4782:4790   */\n      dup5\n        /* \"#utility.yul\":4778:4797   */\n      and\n        /* \"#utility.yul\":4772:4776   */\n      dup4\n        /* \"#utility.yul\":4751:4798   */\n      tag_196\n      jump\t// in\n        /* \"#utility.yul\":4809:4977   */\n    tag_113:\n        /* \"#utility.yul\":4882:4891   */\n      dup1\n      dup3\n      mul\n        /* \"#utility.yul\":4913:4922   */\n      dup2\n      iszero\n        /* \"#utility.yul\":4930:4945   */\n      dup3\n      dup3\n      div\n        /* \"#utility.yul\":4924:4946   */\n      dup5\n      eq\n        /* \"#utility.yul\":4910:4947   */\n      or\n        /* \"#utility.yul\":4900:4971   */\n      tag_89\n      jumpi\n        /* \"#utility.yul\":4951:4969   */\n      tag_89\n      tag_194\n      jump\t// in\n        /* \"#utility.yul\":4982:5107   */\n    tag_116:\n        /* \"#utility.yul\":5047:5056   */\n      dup1\n      dup3\n      add\n        /* \"#utility.yul\":5068:5078   */\n      dup1\n      dup3\n      gt\n        /* \"#utility.yul\":5065:5101   */\n      iszero\n      tag_89\n      jumpi\n        /* \"#utility.yul\":5081:5099   */\n      tag_89\n      tag_194\n      jump\t// in\n\n    auxdata: 0xa26469706673582212203dd32dbf708428be5327f7a04d4a28f6eb034a00bd6a65a70afb09d620ee5bb364736f6c63430008140033\n}\n",
				"bytecode": {
					"linkReferences": {},
					"object": "60a060405234801562000010575f80fd5b5060405162000ff038038062000ff08339810160408190526200003391620001c6565b3383836003620000448382620002c0565b506004620000538282620002c0565b5050506001600160a01b0381166200008457604051631e4fbdf760e01b81525f600482015260240160405180910390fd5b6200008f81620000b7565b506200009e6012600a62000497565b620000aa9082620004ae565b60805250620004c8915050565b600580546001600160a01b038381166001600160a01b0319831681179093556040519116919082907f8be0079c531659141344cd1fd0a4f28419497f9722a3daafe3b4186f6b6457e0905f90a35050565b634e487b7160e01b5f52604160045260245ffd5b5f82601f8301126200012c575f80fd5b81516001600160401b038082111562000149576200014962000108565b604051601f8301601f19908116603f0116810190828211818310171562000174576200017462000108565b8160405283815260209250868385880101111562000190575f80fd5b5f91505b83821015620001b3578582018301518183018401529082019062000194565b5f93810190920192909252949350505050565b5f805f60608486031215620001d9575f80fd5b83516001600160401b0380821115620001f0575f80fd5b620001fe878388016200011c565b9450602086015191508082111562000214575f80fd5b5062000223868287016200011c565b925050604084015190509250925092565b600181811c908216806200024957607f821691505b6020821081036200026857634e487b7160e01b5f52602260045260245ffd5b50919050565b601f821115620002bb575f81815260208120601f850160051c81016020861015620002965750805b601f850160051c820191505b81811015620002b757828155600101620002a2565b5050505b505050565b81516001600160401b03811115620002dc57620002dc62000108565b620002f481620002ed845462000234565b846200026e565b602080601f8311600181146200032a575f8415620003125750858301515b5f19600386901b1c1916600185901b178555620002b7565b5f85815260208120601f198616915b828110156200035a5788860151825594840194600190910190840162000339565b50858210156200037857878501515f19600388901b60f8161c191681555b5050505050600190811b01905550565b634e487b7160e01b5f52601160045260245ffd5b600181815b80851115620003dc57815f1904821115620003c057620003c062000388565b80851615620003ce57918102915b93841c9390800290620003a1565b509250929050565b5f82620003f45750600162000491565b816200040257505f62000491565b81600181146200041b5760028114620004265762000446565b600191505062000491565b60ff8411156200043a576200043a62000388565b50506001821b62000491565b5060208310610133831016604e8410600b84101617156200046b575081810a62000491565b6200047783836200039c565b805f19048211156200048d576200048d62000388565b0290505b92915050565b5f620004a760ff841683620003e4565b9392505050565b808202811582820484141762000491576200049162000388565b608051610b08620004e85f395f818161018901526103ba0152610b085ff3fe608060405234801561000f575f80fd5b50600436106100fb575f3560e01c806370a082311161009357806395d89b411161006357806395d89b4114610213578063a9059cbb1461021b578063dd62ed3e1461022e578063f2fde38b14610266575f80fd5b806370a08231146101c0578063715018a6146101e85780637d64bcb4146101f05780638da5cb5b146101f8575f80fd5b806323b872dd116100ce57806323b872dd14610162578063313ce5671461017557806332cb6b0c1461018457806340c10f19146101ab575f80fd5b806305d2035b146100ff57806306fdde0314610128578063095ea7b31461013d57806318160ddd14610150575b5f80fd5b60055461011390600160a01b900460ff1681565b60405190151581526020015b60405180910390f35b610130610279565b60405161011f9190610856565b61011361014b3660046108bc565b610309565b6002545b60405190815260200161011f565b6101136101703660046108e4565b610322565b6040516012815260200161011f565b6101547f000000000000000000000000000000000000000000000000000000000000000081565b6101be6101b93660046108bc565b610345565b005b6101546101ce36600461091d565b6001600160a01b03165f9081526020819052604090205490565b6101be610439565b6101be61044c565b6005546040516001600160a01b03909116815260200161011f565b610130610469565b6101136102293660046108bc565b610478565b61015461023c36600461093d565b6001600160a01b039182165f90815260016020908152604080832093909416825291909152205490565b6101be61027436600461091d565b610485565b6060600380546102889061096e565b80601f01602080910402602001604051908101604052809291908181526020018280546102b49061096e565b80156102ff5780601f106102d6576101008083540402835291602001916102ff565b820191905f5260205f20905b8154815290600101906020018083116102e257829003601f168201915b5050505050905090565b5f336103168185856104c2565b60019150505b92915050565b5f3361032f8582856104cf565b61033a85858561054b565b506001949350505050565b61034d6105a8565b600554600160a01b900460ff161561039f5760405162461bcd60e51b815260206004820152601060248201526f135a5b9d1a5b99c8191a5cd8589b195960821b60448201526064015b60405180910390fd5b5f6103ac6012600a610a9a565b6103b69083610aa8565b90507f0000000000000000000000000000000000000000000000000000000000000000816103e360025490565b6103ed9190610abf565b111561042a5760405162461bcd60e51b815260206004820152600c60248201526b10d85c08195e18d95959195960a21b6044820152606401610396565b61043483826105d5565b505050565b6104416105a8565b61044a5f61060d565b565b6104546105a8565b6005805460ff60a01b1916600160a01b179055565b6060600480546102889061096e565b5f3361031681858561054b565b61048d6105a8565b6001600160a01b0381166104b657604051631e4fbdf760e01b81525f6004820152602401610396565b6104bf8161060d565b50565b610434838383600161065e565b6001600160a01b038381165f908152600160209081526040808320938616835292905220545f19811015610545578181101561053757604051637dc7a0d960e11b81526001600160a01b03841660048201526024810182905260448101839052606401610396565b61054584848484035f61065e565b50505050565b6001600160a01b03831661057457604051634b637e8f60e11b81525f6004820152602401610396565b6001600160a01b03821661059d5760405163ec442f0560e01b81525f6004820152602401610396565b610434838383610730565b6005546001600160a01b0316331461044a5760405163118cdaa760e01b8152336004820152602401610396565b6001600160a01b0382166105fe5760405163ec442f0560e01b81525f6004820152602401610396565b6106095f8383610730565b5050565b600580546001600160a01b038381166001600160a01b0319831681179093556040519116919082907f8be0079c531659141344cd1fd0a4f28419497f9722a3daafe3b4186f6b6457e0905f90a35050565b6001600160a01b0384166106875760405163e602df0560e01b81525f6004820152602401610396565b6001600160a01b0383166106b057604051634a1406b160e11b81525f6004820152602401610396565b6001600160a01b038085165f908152600160209081526040808320938716835292905220829055801561054557826001600160a01b0316846001600160a01b03167f8c5be1e5ebec7d5bd14f71427d1e84f3dd0314c0f7b2291e5b200ac8c7c3b9258460405161072291815260200190565b60405180910390a350505050565b6001600160a01b03831661075a578060025f82825461074f9190610abf565b909155506107ca9050565b6001600160a01b0383165f90815260208190526040902054818110156107ac5760405163391434e360e21b81526001600160a01b03851660048201526024810182905260448101839052606401610396565b6001600160a01b0384165f9081526020819052604090209082900390555b6001600160a01b0382166107e657600280548290039055610804565b6001600160a01b0382165f9081526020819052604090208054820190555b816001600160a01b0316836001600160a01b03167fddf252ad1be2c89b69c2b068fc378daa952ba7f163c4a11628f55a4df523b3ef8360405161084991815260200190565b60405180910390a3505050565b5f6020808352835180828501525f5b8181101561088157858101830151858201604001528201610865565b505f604082860101526040601f19601f8301168501019250505092915050565b80356001600160a01b03811681146108b7575f80fd5b919050565b5f80604083850312156108cd575f80fd5b6108d6836108a1565b946020939093013593505050565b5f805f606084860312156108f6575f80fd5b6108ff846108a1565b925061090d602085016108a1565b9150604084013590509250925092565b5f6020828403121561092d575f80fd5b610936826108a1565b9392505050565b5f806040838503121561094e575f80fd5b610957836108a1565b9150610965602084016108a1565b90509250929050565b600181811c9082168061098257607f821691505b6020821081036109a057634e487b7160e01b5f52602260045260245ffd5b50919050565b634e487b7160e01b5f52601160045260245ffd5b600181815b808511156109f457815f19048211156109da576109da6109a6565b808516156109e757918102915b93841c93908002906109bf565b509250929050565b5f82610a0a5750600161031c565b81610a1657505f61031c565b8160018114610a2c5760028114610a3657610a52565b600191505061031c565b60ff841115610a4757610a476109a6565b50506001821b61031c565b5060208310610133831016604e8410600b8410161715610a75575081810a61031c565b610a7f83836109ba565b805f1904821115610a9257610a926109a6565b029392505050565b5f61093660ff8416836109fc565b808202811582820484141761031c5761031c6109a6565b8082018082111561031c5761031c6109a656fea26469706673582212203dd32dbf708428be5327f7a04d4a28f6eb034a00bd6a65a70afb09d620ee5bb364736f6c63430008140033",
					"opcodes": "PUSH1 0xA0 PUSH1 0x40 MSTORE CALLVALUE DUP1 ISZERO PUSH3 0x10 JUMPI PUSH0 DUP1 REVERT JUMPDEST POP PUSH1 0x40 MLOAD PUSH3 0xFF0 CODESIZE SUB DUP1 PUSH3 0xFF0 DUP4 CODECOPY DUP2 ADD PUSH1 0x40 DUP2 SWAP1 MSTORE PUSH3 0x33 SWAP2 PUSH3 0x1C6 JUMP JUMPDEST CALLER DUP4 DUP4 PUSH1 0x3 PUSH3 0x44 DUP4 DUP3 PUSH3 0x2C0 JUMP JUMPDEST POP PUSH1 0x4 PUSH3 0x53 DUP3 DUP3 PUSH3 0x2C0 JUMP JUMPDEST POP POP POP PUSH1 0x1 PUSH1 0x1 PUSH1 0xA0 SHL SUB DUP2 AND PUSH3 0x84 JUMPI PUSH1 0x40 MLOAD PUSH4 0x1E4FBDF7 PUSH1 0xE0 SHL DUP2 MSTORE PUSH0 PUSH1 0x4 DUP3 ADD MSTORE PUSH1 0x24 ADD PUSH1 0x40 MLOAD DUP1 SWAP2 SUB SWAP1 REVERT JUMPDEST PUSH3 0x8F DUP2 PUSH3 0xB7 JUMP JUMPDEST POP PUSH3 0x9E PUSH1 0x12 PUSH1 0xA PUSH3 0x497 JUMP JUMPDEST PUSH3 0xAA SWAP1 DUP3 PUSH3 0x4AE JUMP JUMPDEST PUSH1 0x80 MSTORE POP PUSH3 0x4C8 SWAP2 POP POP JUMP JUMPDEST PUSH1 0x5 DUP1 SLOAD PUSH1 0x1 PUSH1 0x1 PUSH1 0xA0 SHL SUB DUP4 DUP2 AND PUSH1 0x1 PUSH1 0x1 PUSH1 0xA0 SHL SUB NOT DUP4 AND DUP2 OR SWAP1 SWAP4 SSTORE PUSH1 0x40 MLOAD SWAP2 AND SWAP2 SWAP1 DUP3 SWAP1 PUSH32 0x8BE0079C531659141344CD1FD0A4F28419497F9722A3DAAFE3B4186F6B6457E0 SWAP1 PUSH0 SWAP1 LOG3 POP POP JUMP JUMPDEST PUSH4 0x4E487B71 PUSH1 0xE0 SHL PUSH0 MSTORE PUSH1 0x41 PUSH1 0x4 MSTORE PUSH1 0x24 PUSH0 REVERT JUMPDEST PUSH0 DUP3 PUSH1 0x1F DUP4 ADD SLT PUSH3 0x12C JUMPI PUSH0 DUP1 REVERT JUMPDEST DUP2 MLOAD PUSH1 0x1 PUSH1 0x1 PUSH1 0x40 SHL SUB DUP1 DUP3 GT ISZERO PUSH3 0x149 JUMPI PUSH3 0x149 PUSH3 0x108 JUMP JUMPDEST PUSH1 0x40 MLOAD PUSH1 0x1F DUP4 ADD PUSH1 0x1F NOT SWAP1 DUP2 AND PUSH1 0x3F ADD AND DUP2 ADD SWAP1 DUP3 DUP3 GT DUP2 DUP4 LT OR ISZERO PUSH3 0x174 JUMPI PUSH3 0x174 PUSH3 0x108 JUMP JUMPDEST DUP2 PUSH1 0x40 MSTORE DUP4 DUP2 MSTORE PUSH1 0x20 SWAP3 POP DUP7 DUP4 DUP6 DUP9 ADD ADD GT ISZERO PUSH3 0x190 JUMPI PUSH0 DUP1 REVERT JUMPDEST PUSH0 SWAP2 POP JUMPDEST DUP4 DUP3 LT ISZERO PUSH3 0x1B3 JUMPI DUP6 DUP3 ADD DUP4 ADD MLOAD DUP2 DUP4 ADD DUP5 ADD MSTORE SWAP1 DUP3 ADD SWAP1 PUSH3 0x194 JUMP JUMPDEST PUSH0 SWAP4 DUP2 ADD SWAP1 SWAP3 ADD SWAP3 SWAP1 SWAP3 MSTORE SWAP5 SWAP4 POP POP POP POP JUMP JUMPDEST PUSH0 DUP1 PUSH0 PUSH1 0x60 DUP5 DUP7 SUB SLT ISZERO PUSH3 0x1D9 JUMPI PUSH0 DUP1 REVERT JUMPDEST DUP4 MLOAD PUSH1 0x1 PUSH1 0x1 PUSH1 0x40 SHL SUB DUP1 DUP3 GT ISZERO PUSH3 0x1F0 JUMPI PUSH0 DUP1 REVERT JUMPDEST PUSH3 0x1FE DUP8 DUP4 DUP9 ADD PUSH3 0x11C JUMP JUMPDEST SWAP5 POP PUSH1 0x20 DUP7 ADD MLOAD SWAP2 POP DUP1 DUP3 GT ISZERO PUSH3 0x214 JUMPI PUSH0 DUP1 REVERT JUMPDEST POP PUSH3 0x223 DUP7 DUP3 DUP8 ADD PUSH3 0x11C JUMP JUMPDEST SWAP3 POP POP PUSH1 0x40 DUP5 ADD MLOAD SWAP1 POP SWAP3 POP SWAP3 POP SWAP3 JUMP JUMPDEST PUSH1 0x1 DUP2 DUP2 SHR SWAP1 DUP3 AND DUP1 PUSH3 0x249 JUMPI PUSH1 0x7F DUP3 AND SWAP2 POP JUMPDEST PUSH1 0x20 DUP3 LT DUP2 SUB PUSH3 0x268 JUMPI PUSH4 0x4E487B71 PUSH1 0xE0 SHL PUSH0 MSTORE PUSH1 0x22 PUSH1 0x4 MSTORE PUSH1 0x24 PUSH0 REVERT JUMPDEST POP SWAP2 SWAP1 POP JUMP JUMPDEST PUSH1 0x1F DUP3 GT ISZERO PUSH3 0x2BB JUMPI PUSH0 DUP2 DUP2 MSTORE PUSH1 0x20 DUP2 KECCAK256 PUSH1 0x1F DUP6 ADD PUSH1 0x5 SHR DUP2 ADD PUSH1 0x20 DUP7 LT ISZERO PUSH3 0x296 JUMPI POP DUP1 JUMPDEST PUSH1 0x1F DUP6 ADD PUSH1 0x5 SHR DUP3 ADD SWAP2 POP JUMPDEST DUP2 DUP2 LT ISZERO PUSH3 0x2B7 JUMPI DUP3 DUP2 SSTORE PUSH1 0x1 ADD PUSH3 0x2A2 JUMP JUMPDEST POP POP POP JUMPDEST POP POP POP JUMP JUMPDEST DUP2 MLOAD PUSH1 0x1 PUSH1 0x1 PUSH1 0x40 SHL SUB DUP2 GT ISZERO PUSH3 0x2DC JUMPI PUSH3 0x2DC PUSH3 0x108 JUMP JUMPDEST PUSH3 0x2F4 DUP2 PUSH3 0x2ED DUP5 SLOAD PUSH3 0x234 JUMP JUMPDEST DUP5 PUSH3 0x26E JUMP JUMPDEST PUSH1 0x20 DUP1 PUSH1 0x1F DUP4 GT PUSH1 0x1 DUP2 EQ PUSH3 0x32A JUMPI PUSH0 DUP5 ISZERO PUSH3 0x312 JUMPI POP DUP6 DUP4 ADD MLOAD JUMPDEST PUSH0 NOT PUSH1 0x3 DUP7 SWAP1 SHL SHR NOT AND PUSH1 0x1 DUP6 SWAP1 SHL OR DUP6 SSTORE PUSH3 0x2B7 JUMP JUMPDEST PUSH0 DUP6 DUP2 MSTORE PUSH1 0x20 DUP2 KECCAK256 PUSH1 0x1F NOT DUP7 AND SWAP2 JUMPDEST DUP3 DUP2 LT ISZERO PUSH3 0x35A JUMPI DUP9 DUP7 ADD MLOAD DUP3 SSTORE SWAP5 DUP5 ADD SWAP5 PUSH1 0x1 SWAP1 SWAP2 ADD SWAP1 DUP5 ADD PUSH3 0x339 JUMP JUMPDEST POP DUP6 DUP3 LT ISZERO PUSH3 0x378 JUMPI DUP8 DUP6 ADD MLOAD PUSH0 NOT PUSH1 0x3 DUP9 SWAP1 SHL PUSH1 0xF8 AND SHR NOT AND DUP2 SSTORE JUMPDEST POP POP POP POP POP PUSH1 0x1 SWAP1 DUP2 SHL ADD SWAP1 SSTORE POP JUMP JUMPDEST PUSH4 0x4E487B71 PUSH1 0xE0 SHL PUSH0 MSTORE PUSH1 0x11 PUSH1 0x4 MSTORE PUSH1 0x24 PUSH0 REVERT JUMPDEST PUSH1 0x1 DUP2 DUP2 JUMPDEST DUP1 DUP6 GT ISZERO PUSH3 0x3DC JUMPI DUP2 PUSH0 NOT DIV DUP3 GT ISZERO PUSH3 0x3C0 JUMPI PUSH3 0x3C0 PUSH3 0x388 JUMP JUMPDEST DUP1 DUP6 AND ISZERO PUSH3 0x3CE JUMPI SWAP2 DUP2 MUL SWAP2 JUMPDEST SWAP4 DUP5 SHR SWAP4 SWAP1 DUP1 MUL SWAP1 PUSH3 0x3A1 JUMP JUMPDEST POP SWAP3 POP SWAP3 SWAP1 POP JUMP JUMPDEST PUSH0 DUP3 PUSH3 0x3F4 JUMPI POP PUSH1 0x1 PUSH3 0x491 JUMP JUMPDEST DUP2 PUSH3 0x402 JUMPI POP PUSH0 PUSH3 0x491 JUMP JUMPDEST DUP2 PUSH1 0x1 DUP2 EQ PUSH3 0x41B JUMPI PUSH1 0x2 DUP2 EQ PUSH3 0x426 JUMPI PUSH3 0x446 JUMP JUMPDEST PUSH1 0x1 SWAP2 POP POP PUSH3 0x491 JUMP JUMPDEST PUSH1 0xFF DUP5 GT ISZERO PUSH3 0x43A JUMPI PUSH3 0x43A PUSH3 0x388 JUMP JUMPDEST POP POP PUSH1 0x1 DUP3 SHL PUSH3 0x491 JUMP JUMPDEST POP PUSH1 0x20 DUP4 LT PUSH2 0x133 DUP4 LT AND PUSH1 0x4E DUP5 LT PUSH1 0xB DUP5 LT AND OR ISZERO PUSH3 0x46B JUMPI POP DUP2 DUP2 EXP PUSH3 0x491 JUMP JUMPDEST PUSH3 0x477 DUP4 DUP4 PUSH3 0x39C JUMP JUMPDEST DUP1 PUSH0 NOT DIV DUP3 GT ISZERO PUSH3 0x48D JUMPI PUSH3 0x48D PUSH3 0x388 JUMP JUMPDEST MUL SWAP1 POP JUMPDEST SWAP3 SWAP2 POP POP JUMP JUMPDEST PUSH0 PUSH3 0x4A7 PUSH1 0xFF DUP5 AND DUP4 PUSH3 0x3E4 JUMP JUMPDEST SWAP4 SWAP3 POP POP POP JUMP JUMPDEST DUP1 DUP3 MUL DUP2 ISZERO DUP3 DUP3 DIV DUP5 EQ OR PUSH3 0x491 JUMPI PUSH3 0x491 PUSH3 0x388 JUMP JUMPDEST PUSH1 0x80 MLOAD PUSH2 0xB08 PUSH3 0x4E8 PUSH0 CODECOPY PUSH0 DUP2 DUP2 PUSH2 0x189 ADD MSTORE PUSH2 0x3BA ADD MSTORE PUSH2 0xB08 PUSH0 RETURN INVALID PUSH1 0x80 PUSH1 0x40 MSTORE CALLVALUE DUP1 ISZERO PUSH2 0xF JUMPI PUSH0 DUP1 REVERT JUMPDEST POP PUSH1 0x4 CALLDATASIZE LT PUSH2 0xFB JUMPI PUSH0 CALLDATALOAD PUSH1 0xE0 SHR DUP1 PUSH4 0x70A08231 GT PUSH2 0x93 JUMPI DUP1 PUSH4 0x95D89B41 GT PUSH2 0x63 JUMPI DUP1 PUSH4 0x95D89B41 EQ PUSH2 0x213 JUMPI DUP1 PUSH4 0xA9059CBB EQ PUSH2 0x21B JUMPI DUP1 PUSH4 0xDD62ED3E EQ PUSH2 0x22E JUMPI DUP1 PUSH4 0xF2FDE38B EQ PUSH2 0x266 JUMPI PUSH0 DUP1 REVERT JUMPDEST DUP1 PUSH4 0x70A08231 EQ PUSH2 0x1C0 JUMPI DUP1 PUSH4 0x715018A6 EQ PUSH2 0x1E8 JUMPI DUP1 PUSH4 0x7D64BCB4 EQ PUSH2 0x1F0 JUMPI DUP1 PUSH4 0x8DA5CB5B EQ PUSH2 0x1F8 JUMPI PUSH0 DUP1 REVERT JUMPDEST DUP1 PUSH4 0x23B872DD GT PUSH2 0xCE JUMPI DUP1 PUSH4 0x23B872DD EQ PUSH2 0x162 JUMPI DUP1 PUSH4 0x313CE567 EQ PUSH2 0x175 JUMPI DUP1 PUSH4 0x32CB6B0C EQ PUSH2 0x184 JUMPI DUP1 PUSH4 0x40C10F19 EQ PUSH2 0x1AB JUMPI PUSH0 DUP1 REVERT JUMPDEST DUP1 PUSH4 0x5D2035B EQ PUSH2 0xFF JUMPI DUP1 PUSH4 0x6FDDE03 EQ PUSH2 0x128 JUMPI DUP1 PUSH4 0x95EA7B3 EQ PUSH2 0x13D JUMPI DUP1 PUSH4 0x18160DDD EQ PUSH2 0x150 JUMPI JUMPDEST PUSH0 DUP1 REVERT JUMPDEST PUSH1 0x5 SLOAD PUSH2 0x113 SWAP1 PUSH1 0x1 PUSH1 0xA0 SHL SWAP1 DIV PUSH1 0xFF AND DUP2 JUMP JUMPDEST PUSH1 0x40 MLOAD SWAP1 ISZERO ISZERO DUP2 MSTORE PUSH1 0x20 ADD JUMPDEST PUSH1 0x40 MLOAD DUP1 SWAP2 SUB SWAP1 RETURN JUMPDEST PUSH2 0x130 PUSH2 0x279 JUMP JUMPDEST PUSH1 0x40 MLOAD PUSH2 0x11F SWAP2 SWAP1 PUSH2 0x856 JUMP JUMPDEST PUSH2 0x113 PUSH2 0x14B CALLDATASIZE PUSH1 0x4 PUSH2 0x8BC JUMP JUMPDEST PUSH2 0x309 JUMP JUMPDEST PUSH1 0x2 SLOAD JUMPDEST PUSH1 0x40 MLOAD SWAP1 DUP2 MSTORE PUSH1 0x20 ADD PUSH2 0x11F JUMP JUMPDEST PUSH2 0x113 PUSH2 0x170 CALLDATASIZE PUSH1 0x4 PUSH2 0x8E4 JUMP JUMPDEST PUSH2 0x322 JUMP JUMPDEST PUSH1 0x40 MLOAD PUSH1 0x12 DUP2 MSTORE PUSH1 0x20 ADD PUSH2 0x11F JUMP JUMPDEST PUSH2 0x154 PUSH32 0x0 DUP2 JUMP JUMPDEST PUSH2 0x1BE PUSH2 0x1B9 CALLDATASIZE PUSH1 0x4 PUSH2 0x8BC JUMP JUMPDEST PUSH2 0x345 JUMP JUMPDEST STOP JUMPDEST PUSH2 0x154 PUSH2 0x1CE CALLDATASIZE PUSH1 0x4 PUSH2 0x91D JUMP JUMPDEST PUSH1 0x1 PUSH1 0x1 PUSH1 0xA0 SHL SUB AND PUSH0 SWAP1 DUP2 MSTORE PUSH1 0x20 DUP2 SWAP1 MSTORE PUSH1 0x40 SWAP1 KECCAK256 SLOAD SWAP1 JUMP JUMPDEST PUSH2 0x1BE PUSH2 0x439 JUMP JUMPDEST PUSH2 0x1BE PUSH2 0x44C JUMP JUMPDEST PUSH1 0x5 SLOAD PUSH1 0x40 MLOAD PUSH1 0x1 PUSH1 0x1 PUSH1 0xA0 SHL SUB SWAP1 SWAP2 AND DUP2 MSTORE PUSH1 0x20 ADD PUSH2 0x11F JUMP JUMPDEST PUSH2 0x130 PUSH2 0x469 JUMP JUMPDEST PUSH2 0x113 PUSH2 0x229 CALLDATASIZE PUSH1 0x4 PUSH2 0x8BC JUMP JUMPDEST PUSH2 0x478 JUMP JUMPDEST PUSH2 0x154 PUSH2 0x23C CALLDATASIZE PUSH1 0x4 PUSH2 0x93D JUMP JUMPDEST PUSH1 0x1 PUSH1 0x1 PUSH1 0xA0 SHL SUB SWAP2 DUP3 AND PUSH0 SWAP1 DUP2 MSTORE PUSH1 0x1 PUSH1 0x20 SWAP1 DUP2 MSTORE PUSH1 0x40 DUP1 DUP4 KECCAK256 SWAP4 SWAP1 SWAP5 AND DUP3 MSTORE SWAP2 SWAP1 SWAP2 MSTORE KECCAK256 SLOAD SWAP1 JUMP JUMPDEST PUSH2 0x1BE PUSH2 0x274 CALLDATASIZE PUSH1 0x4 PUSH2 0x91D JUMP JUMPDEST PUSH2 0x485 JUMP JUMPDEST PUSH1 0x60 PUSH1 0x3 DUP1 SLOAD PUSH2 0x288 SWAP1 PUSH2 0x96E JUMP JUMPDEST DUP1 PUSH1 0x1F ADD PUSH1 0x20 DUP1 SWAP2 DIV MUL PUSH1 0x20 ADD PUSH1 0x40 MLOAD SWAP1 DUP2 ADD PUSH1 0x40 MSTORE DUP1 SWAP3 SWAP2 SWAP1 DUP2 DUP2 MSTORE PUSH1 0x20 ADD DUP3 DUP1 SLOAD PUSH2 0x2B4 SWAP1 PUSH2 0x96E JUMP JUMPDEST DUP1 ISZERO PUSH2 0x2FF JUMPI DUP1 PUSH1 0x1F LT PUSH2 0x2D6 JUMPI PUSH2 0x100 DUP1 DUP4 SLOAD DIV MUL DUP4 MSTORE SWAP2 PUSH1 0x20 ADD SWAP2 PUSH2 0x2FF JUMP JUMPDEST DUP3 ADD SWAP2 SWAP1 PUSH0 MSTORE PUSH1 0x20 PUSH0 KECCAK256 SWAP1 JUMPDEST DUP2 SLOAD DUP2 MSTORE SWAP1 PUSH1 0x1 ADD SWAP1 PUSH1 0x20 ADD DUP1 DUP4 GT PUSH2 0x2E2 JUMPI DUP3 SWAP1 SUB PUSH1 0x1F AND DUP3 ADD SWAP2 JUMPDEST POP POP POP POP POP SWAP1 POP SWAP1 JUMP JUMPDEST PUSH0 CALLER PUSH2 0x316 DUP2 DUP6 DUP6 PUSH2 0x4C2 JUMP JUMPDEST PUSH1 0x1 SWAP2 POP POP JUMPDEST SWAP3 SWAP2 POP POP JUMP JUMPDEST PUSH0 CALLER PUSH2 0x32F DUP6 DUP3 DUP6 PUSH2 0x4CF JUMP JUMPDEST PUSH2 0x33A DUP6 DUP6 DUP6 PUSH2 0x54B JUMP JUMPDEST POP PUSH1 0x1 SWAP5 SWAP4 POP POP POP POP JUMP JUMPDEST PUSH2 0x34D PUSH2 0x5A8 JUMP JUMPDEST PUSH1 0x5 SLOAD PUSH1 0x1 PUSH1 0xA0 SHL SWAP1 DIV PUSH1 0xFF AND ISZERO PUSH2 0x39F JUMPI PUSH1 0x40 MLOAD PUSH3 0x461BCD PUSH1 0xE5 SHL DUP2 MSTORE PUSH1 0x20 PUSH1 0x4 DUP3 ADD MSTORE PUSH1 0x10 PUSH1 0x24 DUP3 ADD MSTORE PUSH16 0x135A5B9D1A5B99C8191A5CD8589B1959 PUSH1 0x82 SHL PUSH1 0x44 DUP3 ADD MSTORE PUSH1 0x64 ADD JUMPDEST PUSH1 0x40 MLOAD DUP1 SWAP2 SUB SWAP1 REVERT JUMPDEST PUSH0 PUSH2 0x3AC PUSH1 0x12 PUSH1 0xA PUSH2 0xA9A JUMP JUMPDEST PUSH2 0x3B6 SWAP1 DUP4 PUSH2 0xAA8 JUMP JUMPDEST SWAP1 POP PUSH32 0x0 DUP2 PUSH2 0x3E3 PUSH1 0x2 SLOAD SWAP1 JUMP JUMPDEST PUSH2 0x3ED SWAP2 SWAP1 PUSH2 0xABF JUMP JUMPDEST GT ISZERO PUSH2 0x42A JUMPI PUSH1 0x40 MLOAD PUSH3 0x461BCD PUSH1 0xE5 SHL DUP2 MSTORE PUSH1 0x20 PUSH1 0x4 DUP3 ADD MSTORE PUSH1 0xC PUSH1 0x24 DUP3 ADD MSTORE PUSH12 0x10D85C08195E18D959591959 PUSH1 0xA2 SHL PUSH1 0x44 DUP3 ADD MSTORE PUSH1 0x64 ADD PUSH2 0x396 JUMP JUMPDEST PUSH2 0x434 DUP4 DUP3 PUSH2 0x5D5 JUMP JUMPDEST POP POP POP JUMP JUMPDEST PUSH2 0x441 PUSH2 0x5A8 JUMP JUMPDEST PUSH2 0x44A PUSH0 PUSH2 0x60D JUMP JUMPDEST JUMP JUMPDEST PUSH2 0x454 PUSH2 0x5A8 JUMP JUMPDEST PUSH1 0x5 DUP1 SLOAD PUSH1 0xFF PUSH1 0xA0 SHL NOT AND PUSH1 0x1 PUSH1 0xA0 SHL OR SWAP1 SSTORE JUMP JUMPDEST PUSH1 0x60 PUSH1 0x4 DUP1 SLOAD PUSH2 0x288 SWAP1 PUSH2 0x96E JUMP JUMPDEST PUSH0 CALLER PUSH2 0x316 DUP2 DUP6 DUP6 PUSH2 0x54B JUMP JUMPDEST PUSH2 0x48D PUSH2 0x5A8 JUMP JUMPDEST PUSH1 0x1 PUSH1 0x1 PUSH1 0xA0 SHL SUB DUP2 AND PUSH2 0x4B6 JUMPI PUSH1 0x40 MLOAD PUSH4 0x1E4FBDF7 PUSH1 0xE0 SHL DUP2 MSTORE PUSH0 PUSH1 0x4 DUP3 ADD MSTORE PUSH1 0x24 ADD PUSH2 0x396 JUMP JUMPDEST PUSH2 0x4BF DUP2 PUSH2 0x60D JUMP JUMPDEST POP JUMP JUMPDEST PUSH2 0x434 DUP4 DUP4 DUP4 PUSH1 0x1 PUSH2 0x65E JUMP JUMPDEST PUSH1 0x1 PUSH1 0x1 PUSH1 0xA0 SHL SUB DUP4 DUP2 AND PUSH0 SWAP1 DUP2 MSTORE PUSH1 0x1 PUSH1 0x20 SWAP1 DUP2 MSTORE PUSH1 0x40 DUP1 DUP4 KECCAK256 SWAP4 DUP7 AND DUP4 MSTORE SWAP3 SWAP1 MSTORE KECCAK256 SLOAD PUSH0 NOT DUP2 LT ISZERO PUSH2 0x545 JUMPI DUP2 DUP2 LT ISZERO PUSH2 0x537 JUMPI PUSH1 0x40 MLOAD PUSH4 0x7DC7A0D9 PUSH1 0xE1 SHL DUP2 MSTORE PUSH1 0x1 PUSH1 0x1 PUSH1 0xA0 SHL SUB DUP5 AND PUSH1 0x4 DUP3 ADD MSTORE PUSH1 0x24 DUP2 ADD DUP3 SWAP1 MSTORE PUSH1 0x44 DUP2 ADD DUP4 SWAP1 MSTORE PUSH1 0x64 ADD PUSH2 0x396 JUMP JUMPDEST PUSH2 0x545 DUP5 DUP5 DUP5 DUP5 SUB PUSH0 PUSH2 0x65E JUMP JUMPDEST POP POP POP POP JUMP JUMPDEST PUSH1 0x1 PUSH1 0x1 PUSH1 0xA0 SHL SUB DUP4 AND PUSH2 0x574 JUMPI PUSH1 0x40 MLOAD PUSH4 0x4B637E8F PUSH1 0xE1 SHL DUP2 MSTORE PUSH0 PUSH1 0x4 DUP3 ADD MSTORE PUSH1 0x24 ADD PUSH2 0x396 JUMP JUMPDEST PUSH1 0x1 PUSH1 0x1 PUSH1 0xA0 SHL SUB DUP3 AND PUSH2 0x59D JUMPI PUSH1 0x40 MLOAD PUSH4 0xEC442F05 PUSH1 0xE0 SHL DUP2 MSTORE PUSH0 PUSH1 0x4 DUP3 ADD MSTORE PUSH1 0x24 ADD PUSH2 0x396 JUMP JUMPDEST PUSH2 0x434 DUP4 DUP4 DUP4 PUSH2 0x730 JUMP JUMPDEST PUSH1 0x5 SLOAD PUSH1 0x1 PUSH1 0x1 PUSH1 0xA0 SHL SUB AND CALLER EQ PUSH2 0x44A JUMPI PUSH1 0x40 MLOAD PUSH4 0x118CDAA7 PUSH1 0xE0 SHL DUP2 MSTORE CALLER PUSH1 0x4 DUP3 ADD MSTORE PUSH1 0x24 ADD PUSH2 0x396 JUMP JUMPDEST PUSH1 0x1 PUSH1 0x1 PUSH1 0xA0 SHL SUB DUP3 AND PUSH2 0x5FE JUMPI PUSH1 0x40 MLOAD PUSH4 0xEC442F05 PUSH1 0xE0 SHL DUP2 MSTORE PUSH0 PUSH1 0x4 DUP3 ADD MSTORE PUSH1 0x24 ADD PUSH2 0x396 JUMP JUMPDEST PUSH2 0x609 PUSH0 DUP4 DUP4 PUSH2 0x730 JUMP JUMPDEST POP POP JUMP JUMPDEST PUSH1 0x5 DUP1 SLOAD PUSH1 0x1 PUSH1 0x1 PUSH1 0xA0 SHL SUB DUP4 DUP2 AND PUSH1 0x1 PUSH1 0x1 PUSH1 0xA0 SHL SUB NOT DUP4 AND DUP2 OR SWAP1 SWAP4 SSTORE PUSH1 0x40 MLOAD SWAP2 AND SWAP2 SWAP1 DUP3 SWAP1 PUSH32 0x8BE0079C531659141344CD1FD0A4F28419497F9722A3DAAFE3B4186F6B6457E0 SWAP1 PUSH0 SWAP1 LOG3 POP POP JUMP JUMPDEST PUSH1 0x1 PUSH1 0x1 PUSH1 0xA0 SHL SUB DUP5 AND PUSH2 0x687 JUMPI PUSH1 0x40 MLOAD PUSH4 0xE602DF05 PUSH1 0xE0 SHL DUP2 MSTORE PUSH0 PUSH1 0x4 DUP3 ADD MSTORE PUSH1 0x24 ADD PUSH2 0x396 JUMP JUMPDEST PUSH1 0x1 PUSH1 0x1 PUSH1 0xA0 SHL SUB DUP4 AND PUSH2 0x6B0 JUMPI PUSH1 0x40 MLOAD PUSH4 0x4A1406B1 PUSH1 0xE1 SHL DUP2 MSTORE PUSH0 PUSH1 0x4 DUP3 ADD MSTORE PUSH1 0x24 ADD PUSH2 0x396 JUMP JUMPDEST PUSH1 0x1 PUSH1 0x1 PUSH1 0xA0 SHL SUB DUP1 DUP6 AND PUSH0 SWAP1 DUP2 MSTORE PUSH1 0x1 PUSH1 0x20 SWAP1 DUP2 MSTORE PUSH1 0x40 DUP1 DUP4 KECCAK256 SWAP4 DUP8 AND DUP4 MSTORE SWAP3 SWAP1 MSTORE KECCAK256 DUP3 SWAP1 SSTORE DUP1 ISZERO PUSH2 0x545 JUMPI DUP3 PUSH1 0x1 PUSH1 0x1 PUSH1 0xA0 SHL SUB AND DUP5 PUSH1 0x1 PUSH1 0x1 PUSH1 0xA0 SHL SUB AND PUSH32 0x8C5BE1E5EBEC7D5BD14F71427D1E84F3DD0314C0F7B2291E5B200AC8C7C3B925 DUP5 PUSH1 0x40 MLOAD PUSH2 0x722 SWAP2 DUP2 MSTORE PUSH1 0x20 ADD SWAP1 JUMP JUMPDEST PUSH1 0x40 MLOAD DUP1 SWAP2 SUB SWAP1 LOG3 POP POP POP POP JUMP JUMPDEST PUSH1 0x1 PUSH1 0x1 PUSH1 0xA0 SHL SUB DUP4 AND PUSH2 0x75A JUMPI DUP1 PUSH1 0x2 PUSH0 DUP3 DUP3 SLOAD PUSH2 0x74F SWAP2 SWAP1 PUSH2 0xABF JUMP JUMPDEST SWAP1 SWAP2 SSTORE POP PUSH2 0x7CA SWAP1 POP JUMP JUMPDEST PUSH1 0x1 PUSH1 0x1 PUSH1 0xA0 SHL SUB DUP4 AND PUSH0 SWAP1 DUP2 MSTORE PUSH1 0x20 DUP2 SWAP1 MSTORE PUSH1 0x40 SWAP1 KECCAK256 SLOAD DUP2 DUP2 LT ISZERO PUSH2 0x7AC JUMPI PUSH1 0x40 MLOAD PUSH4 0x391434E3 PUSH1 0xE2 SHL DUP2 MSTORE PUSH1 0x1 PUSH1 0x1 PUSH1 0xA0 SHL SUB DUP6 AND PUSH1 0x4 DUP3 ADD MSTORE PUSH1 0x24 DUP2 ADD DUP3 SWAP1 MSTORE PUSH1 0x44 DUP2 ADD DUP4 SWAP1 MSTORE PUSH1 0x64 ADD PUSH2 0x396 JUMP JUMPDEST PUSH1 0x1 PUSH1 0x1 PUSH1 0xA0 SHL SUB DUP5 AND PUSH0 SWAP1 DUP2 MSTORE PUSH1 0x20 DUP2 SWAP1 MSTORE PUSH1 0x40 SWAP1 KECCAK256 SWAP1 DUP3 SWAP1 SUB SWAP1 SSTORE JUMPDEST PUSH1 0x1 PUSH1 0x1 PUSH1 0xA0 SHL SUB DUP3 AND PUSH2 0x7E6 JUMPI PUSH1 0x2 DUP1 SLOAD DUP3 SWAP1 SUB SWAP1 SSTORE PUSH2 0x804 JUMP JUMPDEST PUSH1 0x1 PUSH1 0x1 PUSH1 0xA0 SHL SUB DUP3 AND PUSH0 SWAP1 DUP2 MSTORE PUSH1 0x20 DUP2 SWAP1 MSTORE PUSH1 0x40 SWAP1 KECCAK256 DUP1 SLOAD DUP3 ADD SWAP1 SSTORE JUMPDEST DUP2 PUSH1 0x1 PUSH1 0x1 PUSH1 0xA0 SHL SUB AND DUP4 PUSH1 0x1 PUSH1 0x1 PUSH1 0xA0 SHL SUB AND PUSH32 0xDDF252AD1BE2C89B69C2B068FC378DAA952BA7F163C4A11628F55A4DF523B3EF DUP4 PUSH1 0x40 MLOAD PUSH2 0x849 SWAP2 DUP2 MSTORE PUSH1 0x20 ADD SWAP1 JUMP JUMPDEST PUSH1 0x40 MLOAD DUP1 SWAP2 SUB SWAP1 LOG3 POP POP POP JUMP JUMPDEST PUSH0 PUSH1 0x20 DUP1 DUP4 MSTORE DUP4 MLOAD DUP1 DUP3 DUP6 ADD MSTORE PUSH0 JUMPDEST DUP2 DUP2 LT ISZERO PUSH2 0x881 JUMPI DUP6 DUP2 ADD DUP4 ADD MLOAD DUP6 DUP3 ADD PUSH1 0x40 ADD MSTORE DUP3 ADD PUSH2 0x865 JUMP JUMPDEST POP PUSH0 PUSH1 0x40 DUP3 DUP7 ADD ADD MSTORE PUSH1 0x40 PUSH1 0x1F NOT PUSH1 0x1F DUP4 ADD AND DUP6 ADD ADD SWAP3 POP POP POP SWAP3 SWAP2 POP POP JUMP JUMPDEST DUP1 CALLDATALOAD PUSH1 0x1 PUSH1 0x1 PUSH1 0xA0 SHL SUB DUP2 AND DUP2 EQ PUSH2 0x8B7 JUMPI PUSH0 DUP1 REVERT JUMPDEST SWAP2 SWAP1 POP JUMP JUMPDEST PUSH0 DUP1 PUSH1 0x40 DUP4 DUP6 SUB SLT ISZERO PUSH2 0x8CD JUMPI PUSH0 DUP1 REVERT JUMPDEST PUSH2 0x8D6 DUP4 PUSH2 0x8A1 JUMP JUMPDEST SWAP5 PUSH1 0x20 SWAP4 SWAP1 SWAP4 ADD CALLDATALOAD SWAP4 POP POP POP JUMP JUMPDEST PUSH0 DUP1 PUSH0 PUSH1 0x60 DUP5 DUP7 SUB SLT ISZERO PUSH2 0x8F6 JUMPI PUSH0 DUP1 REVERT JUMPDEST PUSH2 0x8FF DUP5 PUSH2 0x8A1 JUMP JUMPDEST SWAP3 POP PUSH2 0x90D PUSH1 0x20 DUP6 ADD PUSH2 0x8A1 JUMP JUMPDEST SWAP2 POP PUSH1 0x40 DUP5 ADD CALLDATALOAD SWAP1 POP SWAP3 POP SWAP3 POP SWAP3 JUMP JUMPDEST PUSH0 PUSH1 0x20 DUP3 DUP5 SUB SLT ISZERO PUSH2 0x92D JUMPI PUSH0 DUP1 REVERT JUMPDEST PUSH2 0x936 DUP3 PUSH2 0x8A1 JUMP JUMPDEST SWAP4 SWAP3 POP POP POP JUMP JUMPDEST PUSH0 DUP1 PUSH1 0x40 DUP4 DUP6 SUB SLT ISZERO PUSH2 0x94E JUMPI PUSH0 DUP1 REVERT JUMPDEST PUSH2 0x957 DUP4 PUSH2 0x8A1 JUMP JUMPDEST SWAP2 POP PUSH2 0x965 PUSH1 0x20 DUP5 ADD PUSH2 0x8A1 JUMP JUMPDEST SWAP1 POP SWAP3 POP SWAP3 SWAP1 POP JUMP JUMPDEST PUSH1 0x1 DUP2 DUP2 SHR SWAP1 DUP3 AND DUP1 PUSH2 0x982 JUMPI PUSH1 0x7F DUP3 AND SWAP2 POP JUMPDEST PUSH1 0x20 DUP3 LT DUP2 SUB PUSH2 0x9A0 JUMPI PUSH4 0x4E487B71 PUSH1 0xE0 SHL PUSH0 MSTORE PUSH1 0x22 PUSH1 0x4 MSTORE PUSH1 0x24 PUSH0 REVERT JUMPDEST POP SWAP2 SWAP1 POP JUMP JUMPDEST PUSH4 0x4E487B71 PUSH1 0xE0 SHL PUSH0 MSTORE PUSH1 0x11 PUSH1 0x4 MSTORE PUSH1 0x24 PUSH0 REVERT JUMPDEST PUSH1 0x1 DUP2 DUP2 JUMPDEST DUP1 DUP6 GT ISZERO PUSH2 0x9F4 JUMPI DUP2 PUSH0 NOT DIV DUP3 GT ISZERO PUSH2 0x9DA JUMPI PUSH2 0x9DA PUSH2 0x9A6 JUMP JUMPDEST DUP1 DUP6 AND ISZERO PUSH2 0x9E7 JUMPI SWAP2 DUP2 MUL SWAP2 JUMPDEST SWAP4 DUP5 SHR SWAP4 SWAP1 DUP1 MUL SWAP1 PUSH2 0x9BF JUMP JUMPDEST POP SWAP3 POP SWAP3 SWAP1 POP JUMP JUMPDEST PUSH0 DUP3 PUSH2 0xA0A JUMPI POP PUSH1 0x1 PUSH2 0x31C JUMP JUMPDEST DUP2 PUSH2 0xA16 JUMPI POP PUSH0 PUSH2 0x31C JUMP JUMPDEST DUP2 PUSH1 0x1 DUP2 EQ PUSH2 0xA2C JUMPI PUSH1 0x2 DUP2 EQ PUSH2 0xA36 JUMPI PUSH2 0xA52 JUMP JUMPDEST PUSH1 0x1 SWAP2 POP POP PUSH2 0x31C JUMP JUMPDEST PUSH1 0xFF DUP5 GT ISZERO PUSH2 0xA47 JUMPI PUSH2 0xA47 PUSH2 0x9A6 JUMP JUMPDEST POP POP PUSH1 0x1 DUP3 SHL PUSH2 0x31C JUMP JUMPDEST POP PUSH1 0x20 DUP4 LT PUSH2 0x133 DUP4 LT AND PUSH1 0x4E DUP5 LT PUSH1 0xB DUP5 LT AND OR ISZERO PUSH2 0xA75 JUMPI POP DUP2 DUP2 EXP PUSH2 0x31C JUMP JUMPDEST PUSH2 0xA7F DUP4 DUP4 PUSH2 0x9BA JUMP JUMPDEST DUP1 PUSH0 NOT DIV DUP3 GT ISZERO PUSH2 0xA92 JUMPI PUSH2 0xA92 PUSH2 0x9A6 JUMP JUMPDEST MUL SWAP4 SWAP3 POP POP POP JUMP JUMPDEST PUSH0 PUSH2 0x936 PUSH1 0xFF DUP5 AND DUP4 PUSH2 0x9FC JUMP JUMPDEST DUP1 DUP3 MUL DUP2 ISZERO DUP3 DUP3 DIV DUP5 EQ OR PUSH2 0x31C JUMPI PUSH2 0x31C PUSH2 0x9A6 JUMP JUMPDEST DUP1 DUP3 ADD DUP1 DUP3 GT ISZERO PUSH2 0x31C JUMPI PUSH2 0x31C PUSH2 0x9A6 JUMP INVALID LOG2 PUSH5 0x6970667358 0x22 SLT KECCAK256 RETURNDATASIZE 0xD3 0x2D 0xBF PUSH17 0x8428BE5327F7A04D4A28F6EB034A00BD6A PUSH6 0xA70AFB09D620 0xEE JUMPDEST 0xB3 PUSH5 0x736F6C6343 STOP ADDMOD EQ STOP CALLER "
				},
				"gasEstimates": {
					"creation": {
						"codeDepositCost": "564800",
						"executionCost": "infinite",
						"totalCost": "infinite"
					},
					"external": {
						"MAX_SUPPLY()": "infinite",
						"allowance(address,address)": "infinite",
						"approve(address,uint256)": "24769",
						"balanceOf(address)": "2560",
						"decimals()": "221",
						"finishMinting()": "26610",
						"mint(address,uint256)": "infinite",
						"mintingFinished()": "2339",
						"name()": "infinite",
						"owner()": "2389",
						"renounceOwnership()": "infinite",
						"symbol()": "infinite",
						"totalSupply()": "2370",
						"transfer(address,uint256)": "51249",
						"transferFrom(address,address,uint256)": "infinite",
						"transferOwnership(address)": "28421"
					}
				},
				"methodIdentifiers": {
					"MAX_SUPPLY()": "32cb6b0c",
					"allowance(address,address)": "dd62ed3e",
					"approve(address,uint256)": "095ea7b3",
					"balanceOf(address)": "70a08231",
					"decimals()": "313ce567",
					"finishMinting()": "7d64bcb4",
					"mint(address,uint256)": "40c10f19",
					"mintingFinished()": "05d2035b",
					"name()": "06fdde03",
					"owner()": "8da5cb5b",
					"renounceOwnership()": "715018a6",
					"symbol()": "95d89b41",
					"totalSupply()": "18160ddd",
					"transfer(address,uint256)": "a9059cbb",
					"transferFrom(address,address,uint256)": "23b872dd",
					"transferOwnership(address)": "f2fde38b"
				}
			},
			"storageLayout": {
				"storage": [
					{
						"astId": 270,
						"contract": "mytoken.sol:CappedToken",
						"label": "_balances",
						"offset": 0,
						"slot": "0",
						"type": "t_mapping(t_address,t_uint256)"
					},
					{
						"astId": 276,
						"contract": "mytoken.sol:CappedToken",
						"label": "_allowances",
						"offset": 0,
						"slot": "1",
						"type": "t_mapping(t_address,t_mapping(t_address,t_uint256))"
					},
					{
						"astId": 278,
						"contract": "mytoken.sol:CappedToken",
						"label": "_totalSupply",
						"offset": 0,
						"slot": "2",
						"type": "t_uint256"
					},
					{
						"astId": 280,
						"contract": "mytoken.sol:CappedToken",
						"label": "_name",
						"offset": 0,
						"slot": "3",
						"type": "t_string_storage"
					},
					{
						"astId": 282,
						"contract": "mytoken.sol:CappedToken",
						"label": "_symbol",
						"offset": 0,
						"slot": "4",
						"type": "t_string_storage"
					},
					{
						"astId": 766,
						"contract": "mytoken.sol:CappedToken",
						"label": "_owner",
						"offset": 0,
						"slot": "5",
						"type": "t_address"
					},
					{
						"astId": 911,
						"contract": "mytoken.sol:CappedToken",
						"label": "mintingFinished",
						"offset": 20,
						"slot": "5",
						"type": "t_bool"
					}
				],
				"types": {
					"t_address": {
						"encoding": "inplace",
						"label": "address",
						"numberOfBytes": "20"
					},
					"t_bool": {
						"encoding": "inplace",
						"label": "bool",
						"numberOfBytes": "1"
					},
					"t_mapping(t_address,t_mapping(t_address,t_uint256))": {
						"encoding": "mapping",
						"key": "t_address",
						"label": "mapping(address => mapping(address => uint256))",
						"numberOfBytes": "32",
						"value": "t_mapping(t_address,t_uint256)"
					},
					"t_mapping(t_address,t_uint256)": {
						"encoding": "mapping",
						"key": "t_address",
						"label": "mapping(address => uint256)",
						"numberOfBytes": "32",
						"value": "t_uint256"
					},
					"t_string_storage": {
						"encoding": "bytes",
						"label": "string",
						"numberOfBytes": "32"
					},
					"t_uint256": {
						"encoding": "inplace",
						"label": "uint256",
						"numberOfBytes": "32"
					}
				}
			},
			"userdoc": {
				"kind": "user",
				"methods": {},
				"version": 1
			}
		}
	}
}